:020000040800F2
:10000000984800209D010008B51B00087D190008D4
:10001000B11B0008A9020008C1220008000000006E
:10002000000000000000000000000000611C00084B
:100030005D04000800000000F11B00088D1C000892
:10004000B7010008B7010008B7010008B7010008B0
:10005000B7010008B7010008B7010008B7010008A0
:10006000B7010008B7010008B7010008B701000890
:10007000B7010008B7010008B7010008B701000880
:10008000B7010008B7010008B7010008B701000870
:10009000AD020008B7010008B7010008B701000869
:1000A000B7010008791D0008B7010008B701000872
:1000B000B7010008B7010008B7010008B701000840
:1000C000B7010008B7010008B7010008B701000830
:1000D000B701000879220008B7010008892200084A
:1000E000B7010008B7010008B7010008B701000810
:1000F000B7010008B7010008B7010008B701000800
:10010000B7010008B7010008B7010008B7010008EF
:10011000AD1E0008B7010008B7010008B7010008CC
:10012000B7010008B7010008B7010008B7010008CF
:10013000B7010008B7010008B7010008B7010008BF
:10014000B7010008B7010008B7010008B7010008AF
:10015000B7010008B7010008B7010008B70100089F
:10016000B7010008B7010008B7010008B70100088F
:10017000B7010008B7010008B7010008000000003F
:10018000B7010008B7010008DFF80CD000F07AF8DA
:1001900000480047E92300089848002006488047A7
:1001A00006480047FEE7FEE7FEE7FEE7FEE7FEE75C
:1001B000FEE7FEE7FEE7FEE75D1D00088901000897
:1001C0002DE9F05F0546002092469B46884606468C
:1001D000814640241BE0284641464746224600F01F
:1001E00041F853465A46C01A914110D31146184659
:1001F000224600F028F82D1A67EB01084F462246E8
:100200000120002100F01FF817EB00094E41201ECD
:10021000A4F10104DFDC484631462A464346BDE8E6
:10022000F09FD2B201E000F8012B491EFBD27047CB
:100230000022F6E710B513460A4604461946FFF7B2
:10024000F0FF204610BD202A04DB203A00FA02F11C
:10025000002070479140C2F1200320FA03F31943B4
:1002600090407047202A04DB203A21FA02F0002156
:10027000704721FA02F3D040C2F1200291400843B6
:1002800019467047064C074D06E0E06840F0010350
:1002900094E8070098471034AC42F6D3FFF778FF94
:1002A000B8330008D8330008FEE7000080B540F2FC
:1002B0002410C2F2000000F03BFA80BD10B582B0FD
:1002C00040F2300CC2F2000CCCF8001000210822E1
:1002D000CCE90211CCF8102040F2280201784378D2
:1002E000C478C2F2000290F802E011705370D4702A
:1002F000017943798479C0791171D07140F2241069
:100300005371C2F2000001AB614682F802E09471C1
:1003100000F0BEF802B010BD10B582B040F230015E
:10032000C2F200014FF4C0620A6000220823C1E952
:1003300002220B61B0F801C040F22002C378C2F281
:100340000002A2F800C09370037990F805C090F8FD
:1003500006E0C479007AD370D07140F22410C2F262
:10036000000001AB82F804C082F805E0947100F04F
:100370008FF802B010BD000080B582B040F23001AD
:10038000C2F200014FF48A620A600022C1E902222F
:1003900040F22002C2F200020823107040F2241042
:1003A0000B61C2F2000001AB00F072F802B080BD38
:1003B00080B544F6044044F2751EC4F20000C2F257
:1003C000000E02689EF8003043F68171C2F200010F
:1003D000CA5408785A1C55288EF8002017D1D0B27C
:1003E0000B2838BF80BD4A7840F2783340F2703C29
:1003F000512AC2F20003C2F2000C0CD0532A0FD0D3
:10040000522A17D140F27832C2F200020CE00020EA
:100410008EF8000080BD40F26832C2F2000203E0B4
:1004200040F27032C2F20002D1F80200D1F8061098
:10043000C2E9000100208EF80000D3E9000140F27B
:10044000F002C2F20002C2E90001DCE9000140F260
:10045000E802C2F20002C2E9000180BD704700005C
:10046000EFF3108072B600BFFEE70000026B013AA6
:10047000012A04D8006800F11402002004E000F111
:10048000340201204FF48021136819431160704732
:1004900010B5D0F800C0D0F830E0AEF1010EBEF1DA
:1004A000010FDCF808E00DD81EF0E05F10D0CEF3AD
:1004B000016EBEF1030F11D100F1340101204FF4A0
:1004C000000233E000F1340101204FF480222DE0DE
:1004D00000F1340101204FF4001227E0012000FA5E
:1004E0000EF01860886818B14B6840EAC30001E05C
:1004F00008684005D1E90334496903430CEB0E1049
:100500000129C0F88031C0F8844105D100F5C271DD
:100510000B6843F480730B605168C0F88C1112684B
:1005200000F5C071C0F88821002001220B681A4331
:100530000A6010BDB0B5026B013A012A2FD846F20D
:100540000060C4F20000026842F00102026002682A
:1005500022F47C520260D1F814E0CC694A6A036844
:10056000012C43EA022202600EF01F024FF0010349
:1005700003FA02F2C3696FEA020C23EA0203C361C1
:1005800013D02CBBC36803EA0C03C360CB688C8810
:1005900044EA034300EBCE0423640B4611E0416BB5
:1005A00041F4802141630120B0BDC3681343C3609F
:1005B0000B688C8844EA034300EBCE04236401F10A
:1005C0000C038C681B8843EA044300EBCE0463648D
:1005D00043688D6943EA0204D1F810E0096A002DEE
:1005E00008BF03EA0C0444604369BEF1000F43EA0C
:1005F000020408BF03EA0C040129446102D1C16965
:100600001143C161016821F0010101600020B0BD0A
:100610007047000010B5046B013C012C0CD8D0F8D9
:1006200000C079B1DCF81040A4070FD100F134010B
:1006300001204FF4001270E000F1340101204FF46A
:1006400080226AE0DCF80C40A4076AD0046804EB5E
:10065000011CDCF8B0410CF5D87E14F00404946061
:10066000DCF8B04119BFE4085460640D1460DEF892
:100670000040002904F00204D460DCF8B44104F026
:100680000F041461DCF8B441C4F307249461DCF86E
:10069000B4414FEA14445461DCF8B8211A7002687E
:1006A00002EB0112D2F8B8214FEA12225A70026806
:1006B00002EB0112D2F8B8214FEA12429A70026896
:1006C00002EB0112D2F8B8214FEA1262DA70026826
:1006D00002EB0112D2F8BC211A71026802EB01127E
:1006E000D2F8BC214FEA12225A71026802EB0112C1
:1006F000D2F8BC214FEA12429A71026802EB011251
:10070000D2F8BC214FEA1262DA71006814BF00F11E
:10071000100100F10C01002020220B681A430A602E
:1007200010BD00F1340101204FF40012F5E7000084
:100730002DE9F04F81B0044600684669D0F8049076
:100740008768D0F80CB0D0F810A0D0F81880F10766
:1007500003D1002530071CD423E0F90710D0012174
:10076000BA07816009D4780700F1AA80380700F140
:10077000B080204600F01EFA02E0204600F01CFA8D
:100780000025F80500F18480F80300F1AA80300705
:1007900007D51BF0100004D0206845F40075102127
:1007A000C160700708D51BF0080005D0206808213B
:1007B000C160204600F08EF9B00706D52068C068F9
:1007C000800702D0204600F087F9700607D51AF09E
:1007D000100004D0206845F4806510210161B00646
:1007E00008D51AF0080005D02068082101612046CC
:1007F00000F0B0F9F00606D520680069800702D045
:10080000204600F0A9F9B00308D519F0100005D072
:10081000206810214160204600F0A0F9F00308D5BF
:1008200019F0080005D0206808214160204600F03A
:10083000CDF9300440F18F805FEA497040F1888043
:1008400006F4807008EA102028435FEA88710146A8
:1008500048BF41F00201B20558BF01465FEA487047
:100860000D4648BF45F00405700558BF0D463005DC
:100870006ED518F070006BD010380009052862D8CA
:10088000DFE800F0035356595C5F45F008055AE075
:1008900020684FF48071BA0581600AD4780512D4BB
:1008A000380519D4204600F089F9F8037FF56FAFB9
:1008B00017E0204600F084F9F8037FF568AF10E0F8
:1008C0004FF400655DE705F50055F8037FF55FAF70
:1008D00007E04FF4805554E705F58045F8037FF5B0
:1008E00056AF20684FF48031BA0381600AD4780390
:1008F0000FD4380313D4204600F064F930073FF5D5
:1009000048AF4EE7204600F05FF930073FF541AFB2
:1009100047E705F5004530073FF53BAF41E705F5F3
:10092000803530073FF535AF3BE745F010050AE06D
:1009300045F0200507E045F0400504E045F080055E
:1009400001E045F480752068816921F070018161C2
:100950002068042141602DB1606B2843606320460C
:10096000FFF756FE01B0BDE8F08F0000B0B5B8B19A
:100970000446006B10B9204600F06CF8206801684E
:1009800021F00201016000F01BFA05462068416871
:10099000890707D500F014FA401B0B28F6D312E0A4
:1009A0000120B0BD016841F00101016000F008FACA
:1009B000054600BF20684168C9070CD100F000FA65
:1009C000401B0B28F6D3606B052140F400306063B8
:1009D00001202163B0BDA1690268012922F08002D3
:1009E00008BF80320260E1690268012922F04002FA
:1009F00008BF40320260216A0268012922F0200209
:100A000008BF20320260616A0268012922F01002E8
:100A100018BF10320260A16A0268012922F00802A0
:100A200008BF08320260E16A0268012922F004026C
:100A300008BF04320260251D2ECD1A4363692A4384
:100A40001A4301391143C161002001216063216310
:100A5000B0BD000080B586B000220592CDE903222A
:100A600046F200410068C4F20001884202920192FD
:100A700001D006B080BD43F630000092C4F20200FF
:100A8000036943F000730361036903F0007300938B
:100A9000009B0092036843F0080303600068022390
:100AA00000F008000090009803200190CDE9023288
:100AB00004900920059001F5D43001A900F0ACF8AC
:100AC00014200521002200F019FA142000F012FA77
:100AD00006B080BD7047000080B58AB003AA01ABA4
:100AE0000021FFF797FD0398A0F20121072922D2E8
:100AF0000138C1B2BDF80420890051FA80F040F2FB
:100B0000782112BAC2F20001120C31F8103021F82B
:100B1000102001EB4000BDF80610BDF8082009BA0E
:100B2000090C418011BA9DF80A20090C03818180CB
:100B300082710AB080BDB0F5007F08D1BDF8040015
:100B400044F2904100BA000CC2F2000108800AB0E1
:100B500080BD000070470000704700007047000033
:100B6000B0B50446006B01281BD102202063206829
:100B7000016821F00101016000F022F9054600BF83
:100B800020684068C00712D000F01AF9401B0B28FB
:100B9000F6D3606B40F400306063052020630120D1
:100BA000B0BD606B40F4002060630120B0BD002048
:100BB0006063B0BD704700007047000070470000E0
:100BC0007047000070470000704700007047000049
:100BD000816B022908D1052181630068016821F039
:100BE000010101600020704780218165012070476C
:100BF000B0B5044600F0E4F8054640F21000C2F239
:100C000000000068611C18BF044400BF00F0D8F861
:100C1000401BA042FAD3B0BD2DE9F04F83B000F1E4
:100C20003E4202F1FF7243F6004E4FEAB22241F615
:100C30000047C4F2010E0192C4F2020708224FF0ED
:100C4000010B00254FF000084FF00009B84208BF23
:100C5000072200920AE000BF09F1010908F1040827
:100C6000B9F1100F05F1020500F0A1800F680BFA31
:100C700009F417EA040CEFD0D1F804A0BAF1120F6E
:100C800015D80BFA0AF717F0061F10D08768032251
:100C9000CE68AA4027EA0202AE4032438260426830
:100CA000A243CAF3001404FA09F422434260C26862
:100CB00003238E6803FA05F4A2436FEA040B06FAD5
:100CC00005F422434AF01004122CC2600FD16FF0D9
:100CD000030202EA5902024408F01C060F23146AB8
:100CE00003FA06F70B69BC43B3402343136202685F
:100CF0004B6802EA0B0203F00304AC402243DB0022
:100D00004FF0010B0260A7D5002243F64403029284
:100D1000C4F202031A684FF6084A42F480421A608D
:100D20001A68CFF6FF7A02F480420292029A29F002
:100D30000302724452F80A3008F00C040F26A64051
:100D4000019FB343009E072F38BF3E4606FA04F4C6
:100D5000234342F80A30DEF800204B6842EA0C04D4
:100D6000DE0358BF22EA0C04CEF80040DEF804206F
:100D70009E0342EA0C0458BF22EA0C04CEF8044059
:100D8000DEF80820DE0242EA0C0458BF22EA0C0416
:100D9000CEF8084043F60C44C4F2010422689B02DA
:100DA00042EA0C0358BF22EA0C03236054E703B065
:100DB000BDE8F08F002A08BF090481617047000078
:100DC00044F29010C2F200000068704740F2100038
:100DD00044F29011C2F20000C2F2000100680A68F9
:100DE000104408607047000080B543F60040C4F22C
:100DF0000200016841F400710160016841F4806102
:100E00000160016841F480710160032000F086F800
:100E1000002000F005F800F049F8002080BD000037
:100E200010B586B0014619200022002400F066F8B3
:100E3000192000F05FF843F644000194C4F2020068
:100E4000016841F0010101600068694600F001009D
:100E50000190019801A800F015F900F04BF94DF64A
:100E600083614000C4F21B31A0FB01014FF0FF3051
:100E700000EB914140F25C100022C2F20000C4F28B
:100E8000010240F2E733C0E90021C0E902430461F6
:100E900000F014FB10B1012006B010BD40F25C1050
:100EA000C2F2000000F024FB06B010BD80B582B095
:100EB000002043F640010190C4F202014A6842F466
:100EC00080424A604A6802F480420192019A00908E
:100ED0000868002240F08050086008680F2100F088
:100EE0008050009000986FF0010000F007F802B009
:100EF00080BD000080B501F0E5F980BD70B51446F5
:100F00000D46064601F0EEF92946224600F054FE51
:100F10000146304601F0EEF970BD000080B501F0E9
:100F2000FBF980BD2DE9F041002800F08B8043F6ED
:100F30000808C4F202080446D8F8F8030D4600F089
:100F40000F00884207D288F8F853D8F8F80300F069
:100F50000F00A84276D12068810717D5410705D533
:100F6000D8F8001041F4E051C8F80010010705D589
:100F7000D8F8001041F46041C8F80010D8F800100B
:100F8000A26821F0F0011143C8F80010C0073FD15A
:100F9000D8F8F80300F00F00A84207D988F8F853F2
:100FA000D8F8F80300F00F00A8424BD120684107A1
:100FB00007D5D8F80010E26821F4E0511143C8F8D1
:100FC0000010000708D5D8F80000216920F460401F
:100FD00040EAC100C8F8000000F09EF8D8F8001000
:100FE00043F28832C1F30311C0F60002515C40F2B3
:100FF000000220FA01F140F21400C2F20000006881
:10100000C2F200021160FFF70BFF0020BDE8F08183
:101010006068811E022907D258F8081C89015CBF4C
:101020000120BDE8F08110E0012807D158F8081C24
:1010300089035CBF0120BDE8F08106E058F8081C78
:10104000890702D40120BDE8F081D8F8001021F012
:1010500003010843C8F80000FFF7B2FE064641F25C
:10106000883700BFD8F80000616800F00C00B0EBD2
:10107000810F8DD0FFF7A4FE801BB842F2D9032068
:10108000BDE8F0810F22026043F60802C4F20202BA
:10109000136803F003034360136803F0F0038360F5
:1010A000136803F4E053C360D2F800C04FF4E05378
:1010B00003EADC030361D2F8F80300F00F000860D4
:1010C0007047000040F20000C2F200000068704764
:1010D00080B5FFF7F7FF43F60801C4F20201096883
:1010E00043F29832C1F38221C0F60002515CC8403D
:1010F00080BD000080B5FFF7E5FF43F60801C4F2AC
:101100000201096843F29832C1F34231C0F600028D
:10111000515CC84080BD000010B543F60404C4F221
:101120000204606800F00C0008280AD0042819BFE7
:1011300042F20040C0F2F40041F60030C0F2B700C5
:1011400010BD206821682368490241F60031C0F2D1
:10115000B70100F03F02C3F388105CBF42F20041C8
:10116000C0F2F401A1FB00010023FFF729F8216878
:101170000222C1F3014102EB4101B0FBF1F010BDCD
:101180002DE9F04182B0002800F0988004460078F4
:1011900043F60006C007C4F2020643D0B06800F070
:1011A0000C00042805D1306880033BD56068C8BBBB
:1011B00084E0B06800F00C00082802D1706840029A
:1011C000F1D46568B5F5A02F0AD0B5F5803F0BD0F6
:1011D000306820F480303060306820F4802006E0F1
:1011E000306840F480203060306840F480303060F7
:1011F000FFF7E6FD002D054611D000BF30688003E3
:1012000010D4FFF7DDFD401B6428F7D918E100BFBB
:10121000FFF7D6FD401B64284FF003004BD8306821
:101220008003F5D42078800719D5B06810F00C0F32
:1012300008D0B06800F00C00082840F0808070688A
:1012400040027CD43068800702D5E068012835D19F
:101250003068216920F0F80040EAC1003060207851
:1012600000072FD42078400743D4A56915B3B06890
:1012700000F00C00082840F09580012D1ED0706809
:10128000E16900F480028A4218D1216A00F03F022D
:101290008A4213D147F6C071626A014091420DD172
:1012A000A16A00F440328A4208D1E16A00F070601D
:1012B000884203D1002002B0BDE8F081012002B0D5
:1012C000BDE8F0816069002840F20000C4F24720C8
:1012D00057D00121C0F8801EFFF772FD054600BF00
:1012E000706F8007BED4FFF76BFD401B0228F7D953
:1012F000A6E0306C10F080580AD100200190306CCC
:1013000040F080503064306C00F0805001900198C3
:1013100047F20007C4F200073868C00524D43868D3
:1013200040F480703860FFF74BFD05463868C00513
:101330001AD4FFF745FD401B0228F7D980E0E0688A
:10134000002851D00020C4F2472001210160FFF79E
:1013500037FD0546306880073FF57AAFFFF730FD6F
:10136000401B0228F6D96BE0A568052D50D0012D51
:1013700052D0306F20F001003067306F20F0040051
:101380004DE00021C0F8801EFFF71AFD054600BFA2
:10139000706F80077FF566AFFFF712FD401B0228D4
:1013A000F6D94DE00027C4F2472700203866FFF742
:1013B00007FD022D05460BD13068800158D5FFF797
:1013C000FFFC401B02284FF00300F5D973E700BF74
:1013D000306880017FF56EAFFFF7F2FC401B0228FA
:1013E0004FF00300F4D966E70020C4F24720002143
:1013F0000160FFF7E5FC0546306880077FF52FAFF9
:10140000FFF7DEFC401B02284FF00300F4D952E73F
:10141000306F40F004003067306F40F001003067FB
:10142000FFF7CEFC002D054641F2883714D000BFEF
:10143000306F800713D4FFF7C3FC401BB842F7D9C5
:10144000032002B0BDE8F081FFF7BAFC401BB842B0
:101450004FF003003FF62FAF306F8007F4D4B8F1A0
:10146000000F7FF402AF306C20F080503064FCE657
:1014700004F11C052FCD084340EA8210D9034FF632
:10148000FF729143A1F5803140EA05600843706026
:1014900001203866FFF794FC044600BF30688001E5
:1014A0003FF508AFFFF78CFC001B02284FF003004C
:1014B000F4D900E77047000070470000002804BF1F
:1014C0000120704710B50446006C20B90020E0638D
:1014D000204600F00BF8022020642068211D00F057
:1014E00053FC01202064002010BD00007047000064
:1014F0000068C16841F00101C160816801F0070125
:10150000062903D0016841F0010101600020704705
:101510007047000010B5044600680169890744BFA0
:10152000C1685FEA817138D420680169490744BF06
:10153000C1685FEA41713CD420680169090744BF72
:10154000C1685FEA017141D420680169C90644BFDE
:10155000C1685FEAC16145D420680169C9071CBF41
:10156000C1685FEAC1714AD120680169090644BFB8
:10157000C1685FEA016149D420680169490644BF36
:10158000C1685FEA416148D420680169890644BFA7
:10159000C1685FEA816147D410BD6FF0020101614B
:1015A0000121E1618069800745D02046FFF7B0FF47
:1015B00047E06FF0040101610221E161806910F4EC
:1015C000407F41D02046FFF7A3FF43E06FF00801C2
:1015D00001610421E161C06980073ED02046FFF728
:1015E00097FF40E06FF0100101610821E161C069DF
:1015F00010F4407F3AD02046FFF78AFF3CE06FF0BE
:1016000001010161204600F03FF8ADE76FF0800175
:1016100001612046FFF74EFFAEE76FF04001016128
:10162000204600F03BF8AFE76FF020010161204653
:10163000FFF742FF10BD204600F022F8204600F0E0
:1016400021F80020E0616FE7204600F019F82046FD
:1016500000F018F80020E0616EE7204600F010F876
:10166000204600F00FF80020E0616DE7204600F012
:1016700007F8204600F006F80020E0616CE7000063
:10168000704700007047000080B500680021C4F278
:101690000101884208BFFFF799FB80BD7047000039
:1016A0007047000010B5026804461068D16853699D
:1016B00000F02F02202A01F0200204D11AB12046A6
:1016C00000F0BAFC10BD5FEA007C1EBF03F0010E03
:1016D00001F4907313EB0E030DD10840010606D4FC
:1016E000400658BF10BD204600F09AFC10BD2046B1
:1016F00000F096FD10BDC30718BF11F4807302D12E
:10170000430706D40CE0636C43F0010363644307B2
:1017100006D5BEF1000F03D0636C43F0020363648F
:10172000830706D5BEF1000F03D0636C43F00403BA
:101730006364BCF1000F06D552EA0E0203D0626C5E
:1017400042F008026264626C002ACFD00840800632
:1017500002D5204600F070FC20684069616C00F002
:10176000400001F0080140181DD0204600F04CFC5C
:1017700020684169490612D5416921F04001416163
:10178000606B60B141F6F971C0F600014165FFF789
:101790001FFA0028AAD0606B416D884710BD204613
:1017A000FFF77EFF10BD2046FFF77AFF0020606440
:1017B00010BD0000002804BF0120704710B504468A
:1017C000C06B20B90020A063204600F01DF8242043
:1017D000E0632068C16821F40051C160204600F038
:1017E00069FC2068016921F490410161416921F09F
:1017F0002A014161C16841F40051C16000202021EB
:101800006064E163216410BD10B586B00021CDE9AC
:101810000411CDE90211006844F60002C4F200028E
:101820009042019129D041F20001C4F201018842A5
:1018300046D044F60041C4F20001884272D1002033
:1018400043F630010090C4F202010A69342442F4E4
:1018500000220A610A6902F400220092009A0090B4
:101860000868082240F0010008600868012100F0C3
:1018700001000090009803203FE043F63000009103
:10188000C4F202000269272442F480220261026944
:1018900002F480220092009A0091026842F0020253
:1018A00002600068072200F00200009000984FF4E8
:1018B000406001900020C4F2020000F5806020E04A
:1018C000002143F630000091C4F202004269252451
:1018D00042F010024261426902F010020092009A46
:1018E0000091026842F0010202600068072200F0E5
:1018F0000100009000984FF4C06001900020C4F2F5
:1019000002000223CDE902310321CDE9041201A92D
:10191000FFF782F9204605210022FFF7EFFA204663
:10192000FFF7E8FA06B010BD0346006C202809D185
:1019300000294FF0010018BF002A00D17047986BB2
:10194000012801D1022070479962002022219A8546
:10195000DA855864196419689863CA6842F4807219
:10196000CA604A6942F001024A61CA6842F0200234
:10197000CA6070477047000070470000FEE7000033
:1019800080B540F2241046F20041C2F20000C4F2D9
:1019900000010322002380E80E0000F10C014FF447
:1019A000102C4FF4001E81E80850C0E90633C0E94E
:1019B0000833C0E90A33FEF7D9FF002818BFFEF745
:1019C0004FFD80BD10B596B043F25030C0F6000018
:1019D00090E80E50D0E905400F9110921193CDF888
:1019E00048C0CDF84CE0CDE914400FA8002100F02C
:1019F00031FD40F2FC01C2F20001086043F26C309C
:101A0000C0F6000090E81E50806908910E9008A86A
:101A1000002109920A930B94CDF830C0CDF834E040
:101A200000F018FD44F27C11C2F20001086043F29C
:101A30003430C0F6000090E81E5080690191079094
:101A400001A80021029203930494CDF814C0CDF8AC
:101A500018E000F0FFFC40F2D801C2F2000108607B
:101A600016B010BD70B586B0002543F63000059560
:101A7000CDE90355CDE901550095C4F20200016896
:101A800041F2000441F0800101600168C4F20204E7
:101A900001F080010091009900950168002241F059
:101AA000010101600168012601F001010091009926
:101AB0000095016841F002010160016801F0020136
:101AC000009100990095016841F0080101600168EA
:101AD00001F00801009100990095016841F01001A2
:101AE00001600068012100F010000090009820467D
:101AF000FFF760F901A92046CDE90166CDE903555C
:101B0000FFF78AF806B070BD80B540F2302044F689
:101B10000041C2F20000C4F2000100234FF00C0C9F
:101B20004FF4E13280E80E00C0E90333C0E905C399
:101B3000C361FFF73FFE002818BFFEF791FC80BD90
:101B400080B540F2A01041F20001C2F20000C4F2E0
:101B5000010100234FF00C0C4FF4E13280E80E003D
:101B6000C0E90333C0E905C3C361FFF723FE0028C2
:101B700018BFFEF775FC80BD80B540F2E81044F652
:101B80000001C2F20000C4F2000100234FF00C0C6F
:101B90004FF4E13280E80E00C0E90333C0E905C329
:101BA000C361FFF707FE002818BFFEF759FC80BD90
:101BB000FEE70000FEE7000000F0070080F00703EA
:101BC000042B28BF04234FF0FF3C03380CFA03F327
:101BD00038BF0020994381400CFA00F022EA00004F
:101BE00008437047000000000000000000000000F3
:101BF000EFF30980BFF36F8F154B1A681EF0100FBB
:101C000008BF20ED108A20E9F04F10602DE909008F
:101C10004FF0500080F31188BFF34F8FBFF36F8FE9
:101C200001F0FCF84FF0000080F31188BDE80900D6
:101C300019680868B0E8F04F1EF0100F08BFB0EC4C
:101C4000108A80F30988BFF36F8F704700BF00BF11
:101C5000CC02002000000000000000000000000096
:101C6000074B19680868B0E8F04F80F30988BFF3A4
:101C70006F8F4FF0000080F31188704700BF00BFE6
:101C8000CC020020012000F0D5FBFBE780B54FF02F
:101C9000500080F31188BFF36F8FBFF34F8F01F0B7
:101CA000FBF930B14EF60450CEF200004FF08051F7
:101CB0000160002080F3118880BD000070B592B0F3
:101CC00006AC20463021FEF7B3FA002543F640006B
:101CD0000595CDE90355CDE901550095C4F2020003
:101CE0000168022641F080510160006800F08050D8
:101CF0000090009847F200000095C4F200000168CF
:101D000041F480410160006800F480400090009838
:101D10000120099010200A9008200696CDE90C6554
:101D20000E90A820CDE90F06042011902046FFF761
:101D300027FA88B90F20CDE901064FF4A05004908E
:101D40004FF48050059001A805210395FFF7EAF8AC
:101D5000002804BF12B070BDFEF782FB4EF688501B
:101D6000CEF20000016841F4700101604FF00061A3
:101D700040F8801C7047000080B540F25C10C2F251
:101D80000000FFF7C7FB80BD10B540F6FF3E0368BB
:101D9000C4F2000E40F2004C7045C4F2010C0FDC9E
:101DA000B0F1804F19D040F20042C4F200029042DC
:101DB00013D040F60002C4F2000290420DD010E0B1
:101DC00040F60042C4F20002904206D0604504D0C2
:101DD0000022C4F20102904203D14A6823F070034A
:101DE000134341F6FF72C4F2000290420DDC7045CD
:101DF0001FDCB0F1804F41D040F20042C4F200023B
:101E000090423BD040F6000221E043F6FF72C4F25C
:101E10000102904220DC42F20002C4F20002904231
:101E20002CD00022C4F20102904227D0604525D078
:101E300028E040F60042C4F2000290421ED041F673
:101E40000002C4F20002904218D041F60042C4F2EF
:101E50000002904212D015E044F20002C4F20102E6
:101E600090420BD044F60002C4F20102904205D029
:101E700044F20042C4F20102904203D1CA6823F442
:101E80004073134323F080024B69D1F800E08C6863
:101E90001A430260C46240F48062C0F828E06245E0
:101EA00004BF096901630121416110BD10B544F609
:101EB0000C40C4F20000006810F0140F00F08380A2
:101EC000FEF776FA40F27030C2F20000B0F900106E
:101ED000B0F90420B0F9020000EE102A03EE100A57
:101EE00040F27830C2F2000002EE101AB0F9001091
:101EF000B0F90220B0F904009FED3B1A04EE101A6D
:101F000006EE102A07EE100AB8EEC00AB8EEC22A92
:101F1000B8EEC33AB8EEC44A9FED355AB8EEC66A79
:101F2000B8EEC77A20EE010A22EE012A23EE013A2A
:101F300024EE014A26EE016A27EE011A24EE054A34
:101F400026EE056A21EE051A9FED2A5A44F28C10FE
:101F500084EE054A86EE056A81EE051AC2F200009B
:101F600001689FED225A0131016040F2001020EE1D
:101F7000050A22EE052A23EE053AC2F2000080EDA2
:101F8000000A80ED012A80ED023A40F21811C2F2F7
:101F90000001D0E90023806840F2CC0481ED004AC2
:101FA00081ED016A81ED021AC2F20004C4E9002346
:101FB000A060D1E90002896840F20C13C2F200036C
:101FC000C3E90002996040F23024C2F200042046C6
:101FD000FFF768FB40F24801C2F2000120460122EF
:101FE000FFF7A2FC10BD00BF00000038DA0F494027
:101FF0000000FA440000B44380B5C06B0021C185E5
:10200000C184FFF74DFB80BD0168CA6822F490725D
:10201000CA604A6922F001024A61202101647047C6
:1020200080B50168CA6822F04002CA602021C163FD
:10203000FFF7A2FC80BD000080B5016C222937D1DA
:102040008168B1F5805F0AD102680369816A5268CC
:102050008BB1836AD2B20A80591C816211E0016897
:1020600002694968002A826A18BF01F07F01531C87
:102070008362117005E0836A6FF35F220A80991C06
:102080008162C18D01390A04C18518BF80BD016814
:10209000CA6822F02002CA60CA6822F48072CA604C
:1020A0004A6922F001024A6120210164FFF762FCC3
:1020B00080BD0000B0B50546006805F108030ECBF1
:1020C0000469194324F44054224302616A69EB69AC
:1020D0001143C26849F20C641943A2431143C16021
:1020E0004169AA6921F440711143416141F2004103
:1020F000B3F5004F40F48060C4F2010124D188425E
:1021000046D1FEF7F7FF6B681921A0FB01015A00C9
:10211000DB0FFEF755F848F21F51C5F2EB11A0FB9B
:1021200001235A096FF0630302FB0300322303EB20
:10213000C000A0FB01014FF4F87000EA111000EBA1
:102140000210C1F3421167E0884244D1FEF7D2FF8A
:102150006B681921A0FB01019A009B0FFEF730F874
:1021600048F21F51C5F2EB11A0FB01235A096FF091
:10217000630302FB0300322303EB0010A0FB010109
:10218000F02000EA511000EB0210C1F3431143E0CC
:10219000FEF79EFF6B681921A0FB01015A00DB0FBF
:1021A000FEF70EF848F21F51C5F2EB11A0FB012318
:1021B0005A096FF0630302FB0300322303EBC000F4
:1021C000A0FB01014FF4F87000EA111000EB0210BF
:1021D000C1F3421120E0FEF77BFF6B681921A0FBE1
:1021E00001019A009B0FFDF7EBFF48F21F51C5F26A
:1021F000EB11A0FB01235A096FF0630302FB0300FC
:10220000322303EB0010A0FB0101F02000EA511083
:1022100000EB0210C1F343112A6808439060B0BD7F
:10222000C16B212927D18168B1F5805F0ED1016A88
:10223000D0F800C00B8802696FF35F23002ACCF846
:10224000043014BF01310231016205E0016A026805
:102250004B1C036209785160C18C01390A04C184A6
:1022600018BF70470068C16821F08001C160C16873
:1022700041F04001C160704780B540F2A010C2F249
:102280000000FFF70FFA80BD10B544F60C00C4F251
:102290000000006810F0140F18BF00F0EFFB40F2D0
:1022A000E814C2F200042046FFF7FCF940F2AC014A
:1022B000C2F2000120460122FFF736FB10BD0000EC
:1022C000FEE70000002848BF704700F01F01012210
:1022D00002FA01F14EF200124009CEF2000242F879
:1022E000201070474EF60C50CEF200000068C0F38C
:1022F000022070474EF6145300F00F02CEF2000396
:1023000009011A4400F16043B0F1FF3FC8BF03F573
:1023100064421170704700004EF60C51CEF200017D
:102320000A684FF6FF031A4060F30A2242F0806009
:1023300040F0FD700860704710B58AB040F2241478
:1023400001200021C2F200040890CDE90610CDE979
:102350000011CDE90211CDE9041169462046FEF7CE
:10236000E9F82046FEF7FCFB20460221FEF77EF846
:102370000AB010BDFFF7E0FF40F2E00740F2F008BE
:1023800040F2E80940F2040640F2DC0440F2F805AD
:10239000C2F20007C2F20008C2F20009C2F200064F
:1023A000C2F20004C2F20005FEF70AFD38604046A2
:1023B0004FF4A061FDF782FF48464FF48061FDF7BE
:1023C0007DFF022000F036F8707AFDF7D5FF304629
:1023D000FDF7A2FF022000F02DF838682168206088
:1023E000411A2960E0E70000FEF7FEFCFFF766FCFB
:1023F000FFF738FBFFF7C4FAFFF786FBFFF7BCFBDC
:10240000FFF79EFB4FF4FA70FEF7F2FB41F200007B
:10241000C4F2020001210122FEF7CCFCFFF7D2FA40
:1024200000F012F8FEE70000B0F1840118BFC11CF3
:102430000846704780B5002808BF012000F07CFCEA
:10244000002080BD8120704780B500F09FFC0020F7
:1024500080BD00002DE9F04385B046690C469EB171
:1024600085698DB18168D0E9008907690846FFF761
:10247000DBFFCDE90006484641463A462346029531
:1024800000F0CEFD049012E0058AD0E90067806874
:10249000FFF7CAFF0DF1100C0090384631462A466E
:1024A0002346CDF804C000F087FD012803D104982D
:1024B00005B0BDE8F083002005B0BDE8F083000062
:1024C000F0B581B00D4644F2884140F2CC26C2F20C
:1024D0000001C2F200060F6831680446081D00F0D2
:1024E0002FFB10B1601C0FD019E0306844F2A81225
:1024F000C06AC2F200020121136801FA00F023EA67
:1025000000001060601C0AD14DB13068011D44F21A
:102510006040C2F2000000F063FB01B0F0BD306823
:10252000E41944600AD340F2D820C2F200000068E7
:102530003168043100F036FB01B0F0BD40F2D0202C
:10254000C2F2000000683168043100F02BFB44F255
:102550003840C2F2000001688C4238BF046001B00C
:10256000F0BD000070B5044600F052FB44F2941038
:10257000C2F20000016840F2CC2501310160C2F2D4
:102580000005296844F25446C2F2000641B13068A1
:1025900060B92868E16AC06A884298BF2C6005E08B
:1025A0002C600068012801D100F00CF944F2A4105D
:1025B000C2F20000016844F2A81201310160E06A31
:1025C000C2F200020121136881401943116040F2F8
:1025D000DC2100EB8000C2F2000101EB8000211D34
:1025E00000F0FEFA00F038FB306880B12868E16A3C
:1025F000C06A884228BF70BD4EF60450CEF200007B
:102600004FF080510160BFF34F8FBFF36F8F70BDEC
:10261000F0B581B044F29815C2F200052868E0B127
:1026200044F2744644F29417C2F20006C2F2000764
:1026300000F0EEFAF068C468201D00F081FA3868F6
:102640000138386028680138286000F005FB204612
:1026500000F006F828680028EAD101B0F0BD0000BB
:1026600010B5044690F85100022808BF10BD01289B
:1026700003D030B9206B00F007FB204600F004FBCC
:1026800010BD4FF0500080F31188BFF36F8FBFF380
:102690004F8F00BFFEE7000040F28030C2F2000022
:1026A000C21D22F0070210F0070CA0EB020318BFB6
:1026B000104644F25842C2F200020021C2E9000171
:1026C0004FF47052BCF1000F18BF03F57052024472
:1026D000083A40F2D42322F00702C2F200031A6043
:1026E000C2E90011111A1A68C0E9002144F234400D
:1026F000C2F20000016044F2D810C2F20000016092
:1027000044F2AC10C2F200000121017070470000D9
:1027100040F2DC244EF60455C2F20004CEF200056D
:102720004FF08056FFF774FF20680228FAD32E601E
:10273000BFF34F8FBFF36F8FF4E700002DE9F04731
:10274000DDE909878246386B089C00EB820004387B
:10275000994620F0070679B107F13400002200BF46
:102760008B5C83548B5C1BB10F2A02F10102F7D3FF
:10277000002087F8430002E0002087F8340000259D
:10278000381D062C28BF0624FC62C7E9114500F05D
:1027900005FA07F1180000F001FA84F00700B861AB
:1027A000304651464A463F617F62FD6487F850508B
:1027B00000F050F9B8F1000F386018BFC8F8007089
:1027C000BDE8F087B0B540F2DC250024C2F2000578
:1027D000281900F0D7F914348C2CF9D144F2B01434
:1027E000C2F20004204600F0CDF944F2C415C2F252
:1027F0000005284600F0C6F944F24040C2F200004D
:1028000000F0C0F944F27440C2F2000000F0BAF9DE
:1028100044F26040C2F2000000F0B4F940F2D0206F
:10282000C2F20000046040F2D820C2F2000005604D
:10283000B0BD000080B544F25842C2F2000200BFB1
:10284000114612688242FBD3D1F804C001EB0C039D
:10285000834203D14068604448600846D0F804E0F1
:1028600000EB0E03934201D0026010E040F2D4234B
:10287000C2F20003D3F800C0624506D00B6852686C
:102880001B687244C0E9003201E0C0F800C0814218
:1028900018BF086080BD000008480068006880F329
:1028A00008884FF0000080F3148862B661B6BFF369
:1028B0004F8FBFF36F8F00DF00BF00BF08ED00E058
:1028C00040F2D020C2F200000168096821B100681E
:1028D000C068C068406801E04FF0FF3044F2384102
:1028E000C2F200010860704781B00020009040F201
:1028F0001800C2F2000000684FF0500181F3118807
:10290000BFF36F8FBFF34F8F013001D0FEE700BFE1
:1029100000980028FCD001B0704700002DE9F0437A
:1029200081B0044600F072FA40F2D426C2F20006EA
:102930003068002808BFFFF7AFFE44F2AC19C2F2BE
:10294000000999F80000002818BF4FF0004020420D
:102950000DD0002400F052FC60071ED04FF0500054
:1029600080F31188BFF36F8FBFF34F8FFEE7C4B1C1
:1029700004F1080111F007001EBF081A00F1080158
:102980005FEA41700ED04FF0500080F31188BFF322
:102990006F8FBFF34F8F00BFFEE7204601B0BDE849
:1029A000F083002144F2D818C2F20008D8F80000E1
:1029B0004A1E8242CDD244F25840C2F2000005685D
:1029C0002F4657F8042F8A4211D22B685BB100BF03
:1029D0001F4657F8042F28461D468A4207D22B6807
:1029E000002BF5D103E044F25840C2F200003368F6
:1029F0009D42AED004682B68521A112A036010D38E
:102A00006818430709D04FF0500080F31188BFF3D6
:102A10006F8FBFF34F8F00BFFEE742603960FFF753
:102A200009FF44F234413868D8F80020C2F20001AE
:102A30000B68121A9A42C8F8002038BF0A6099F849
:102A400000100834002918BF40F000403860002012
:102A500028607FE7034642F6E900C0F600004FF029
:102A6000807C21F0010103E903106FF0020043F8BC
:102A7000240CA3F1440043F8202C704744F60400D2
:102A800044F27611C4F20000C2F2000102680B7831
:102A900044F27B0CC2F2000C0CF803209CF80000FE
:102AA0005A1C88280A701EBF002008707047D0B2D8
:102AB0000A2838BF704740F2C020DCF80110C2F28B
:102AC0000000DCF8052001609CF8091042600172EA
:102AD0007047000082B00020019040F2302040F2A8
:102AE0004801C2F20000C2F200010122FEF71CFF01
:102AF00040F2E81040F2AC01C2F20000C2F2000164
:102B00000122FEF711FF44F2841544F2801644F2CC
:102B10008817C2F20005C2F20006C2F2000701AC3B
:102B2000FEF74EF928600120FFF784FC2868316821
:102B30003060411A396020460221FFF783FCEFE73D
:102B4000D0E90123016993604B68D0F808C0834243
:102B5000CCF8042001D182684A6000220261086832
:102B6000013808600868704744F2E033C2F200039D
:102B7000036044F2DC10C2F20000086080201060A4
:102B8000704700004FF0FF31024642F8081F002155
:102B90004260C0E90322016070470000002101612A
:102BA0007047000080B5D1F800C01CF1010207D0C9
:102BB00000F108039E465B681A686245FAD901E095
:102BC000D0F810E0DEF8042008614A609160C1F896
:102BD00008E0CEF8041001680131016080BD0000FA
:102BE000D0F800C0436808619A684B608A609A68B0
:102BF000996051600CF1010101607047DFF80C0031
:102C0000016841F470010160704700BF88ED00E089
:102C10004FF0500080F31188BFF36F8FBFF34F8FD9
:102C200040F21800C2F2000001684A1C026001B1C3
:102C300070474EF60450CEF200000068000608BF50
:102C400070474FF0500080F31188BFF36F8FBFF3D0
:102C50004F8F00BFFEE7000040F21800C2F20000F4
:102C6000016839B10139016018BF7047002080F355
:102C7000118870474FF0500080F31188BFF36F8FB9
:102C8000BFF34F8FFEE70000B0B5002808BFB0BD0E
:102C9000044644F2AC10C2F20000007854F8041C60
:102CA000002818BF4FF0004008420CD0A4F10805DE
:102CB0002A6892B14FF0500080F31188BFF36F8FF4
:102CC000BFF34F8FFEE74FF0500080F31188BFF342
:102CD0006F8FBFF34F8F00BFFEE721EA000044F87B
:102CE000040C00F093F844F2D811C2F2000154F839
:102CF000040C0A68104408602846FFF79BFD00F0AA
:102D00007DFAB0BD4EF21000CEF20000002101604D
:102D1000816040F20001C2F20001096844F6D3521A
:102D2000C1F26202A1FB02124FF0FF3101EB9211DE
:102D3000416007210160704710B5D8B1044644F2E4
:102D4000A010C2F20000006848B14FF0500080F3BC
:102D50001188BFF36F8FBFF34F8F00BFFEE700F006
:102D600055F820460021FFF7ABFB00F047FA00289A
:102D700018BF10BD4EF60450CEF200004FF0805147
:102D80000160BFF34F8FBFF36F8F10BD10B586B0DA
:102D9000002405A804A903AACDE90444FFF7E4FE32
:102DA000DDE9032005990023CDE9010142F211700C
:102DB000C0F6000013A1009400F032F944F2DC31B7
:102DC000C2F200010860D8B14FF0500080F31188C2
:102DD000BFF36F8FBFF34F8F44F23840C2F2000051
:102DE0004FF0FF31016044F25440C2F20000012173
:102DF000016044F28840C2F20000046000F052F822
:102E000006B010BD49444C450000000044F2A0103B
:102E1000C2F20000016801310160704744F2A01065
:102E2000C2F20000006830B144F28C40C2F20000EF
:102E300001210160704744F28C40C2F20000002181
:102E4000016044F2A810C2F200000068B0FA80F0FD
:102E5000C0B2C0F11F0040F2DC2100EB8000C2F2E2
:102E6000000151F8202092B101EB800050F8041FBE
:102E70004968021D9142016001D149680160006802
:102E800040F2CC21C068C2F20001086070474FF0E8
:102E9000500080F31188BFF36F8FBFF34F8F00BFD7
:102EA000FEE7000080B582B04EF20040CEF2000096
:102EB0004CF27021C4F20F11D0F800294B1C9A4239
:102EC00009D14FF0500080F31188BFF36F8FBFF32B
:102ED0004F8F00BFFEE7D0F800298A4209D14FF09A
:102EE000500080F31188BFF36F8FBFF34F8F00BF87
:102EF000FEE7017843F680720191FF2101700178AD
:102F0000C2F200028DF803109DF8031001F0500189
:102F1000117044F27811C2F2000107220A609DF993
:102F20000320B2F1FF3F0CDC0A6800BF9DF80330BC
:102F3000013A5B008DF803309DF90330002BF5D486
:102F40000A600A68032A2DD14FF4E06303EA0222E3
:102F50000A6001990170D0F8201941F47001C0F89D
:102F60002019D0F8201941F07041C0F82019FFF75E
:102F7000C9FE40F21800C2F2000000210160FFF714
:102F80003DFE4EF63470CEF20000016841F0404143
:102F90000160FFF781FCFFF741FFFFF7A5FC002070
:102FA00002B080BD4FF0500080F31188BFF36F8FE7
:102FB000BFF34F8FFEE700002DE9F04383B00746D3
:102FC0009000984615468946FFF7A8FC78B106465A
:102FD0005420FFF7A3FC38B10446066354B94FF000
:102FE000FF3003B0BDE8F0833046FFF74DFE00240C
:102FF000002CF4D0DDE90A10002284F85120CDE93C
:103000000010384649462A4643460294FFF796FB8D
:103010002046FFF7A7FA012003B0BDE8F0830000C7
:1030200070B586B00B9CCCB10C9E06B354250495AC
:10303000049D542D25D1049DDDF828C0022586F875
:10304000515005AD3463CDE900C50296FFF776FB1C
:103050003046FFF787FA059806B070BD4FF0500074
:1030600080F31188BFF36F8FBFF34F8FFEE74FF0F0
:10307000500080F31188BFF36F8FBFF34F8F00BFF5
:10308000FEE74FF0500080F31188BFF36F8FBFF35E
:103090004F8F00BFFEE700002DE9F04F81B044F2F2
:1030A000A010C2F20000006840B144F29C10C2F2CD
:1030B0000000016800240131016093E044F288407F
:1030C000C2F2000001684E1C066021D340F2D020FD
:1030D000C2F200000168096849B14FF0500080F366
:1030E0001188BFF36F8FBFF34F8F00BFFEE740F231
:1030F000D822C2F2000201681368036044F23C4027
:103100001160C2F20000016801310160FFF7D8FBD5
:1031100044F23841C2F20001086840F2CC2A8642EB
:10312000C2F2000A01D200244EE040F2D02BC2F2DB
:10313000000BDBF8000000240068D8B344F2A819A3
:103140000127C2F200091FE0D8F82C00D9F80010BE
:1031500007FA00F21143C9F8001040F2DC2100EB3D
:103160008000C2F2000101EB80002946FFF738FD24
:10317000D8F82C00DAF80010C96ADBF80020884281
:10318000106828BF3C46C0B1DBF80000C068D0F82A
:103190000C80454655F8040F864210D32846FFF7A9
:1031A000CFFCD8F828000028CED008F11800FFF78F
:1031B000C7FCC9E74FF0FF3005E04FF0FF3044F2A5
:1031C0003841C2F200010860DAF8000040F2DC2168
:1031D000C06AC2F2000100EB800051F82000012813
:1031E00088BF012444F28C40C2F20000006800282D
:1031F00018BF0124204601B0BDE8F08F2DE9F04F43
:1032000081B044F2A014C2F20004206868B1FFF754
:10321000FFFC206801382060206880B10024FFF79F
:103220001BFD204601B0BDE8F08F4FF0500080F349
:103230001188BFF36F8FBFF34F8F00BFFEE744F2DB
:103240009410C2F20000006800285FD044F24046AB
:10325000C2F20006306844F28C48C2F2000898B30B
:1032600044F2A81540F2DC2940F2CC2A4FF0010BC1
:10327000C2F20005C2F20009C2F2000AF068C76893
:1032800007F11800FFF75CFC3C1D2046FFF758FCD7
:10329000F86A29680BFA00F2114300EB80002960FC
:1032A00009EB80002146FFF79BFCF86ADAF8001072
:1032B000C96A884228BFC8F800B030680028DDD14C
:1032C000002F18BFFFF7FCFA44F29C14C2F200046E
:1032D00025685DB1012600BFFFF7DEFE002818BF9C
:1032E000C8F80060013DF7D100202060D8F8000048
:1032F00070B14EF60450CEF200004FF080510160E4
:10330000BFF34F8F0124BFF36F8F88E7002486E758
:10331000002484E702E008C8121F08C1002AFAD17D
:1033200070477047002001E001C1121F002AFBD145
:1033300070470000A033000875230008000000005B
:1033400000000000800000000000000000000000FD
:10335000AC330008851C00080000000000000000DD
:10336000800000000000000000000000A5330008FD
:10337000D52A0008000000000000000080000000C6
:10338000000000000000000000000000000000003D
:1033900001020304060708090000000001020304FB
:1033A00063616E5F0075736172745F00646566616E
:1033B000756C745461736B00D833000800000020F2
:1033C0002000000014330008F8330008200000201B
:1033D00078480000243300080024F40001020304AC
:1033E00005060708090A000001000000100000009F
:0833F000AAAAAAAA000000002D
:040000050800018965
:00000001FF
