:020000040800F2
:10000000786100209D010008892F0008C52900089B
:10001000852F0008BD080008F9380008000000001E
:10002000000000000000000000000000E1310008B6
:10003000F50A000800000000E13000080532000861
:10004000B7010008B7010008B7010008B7010008B0
:10005000B7010008B7010008B7010008B7010008A0
:10006000B7010008B7010008B7010008190A000825
:10007000B7010008290A0008B7010008B701000805
:10008000390A0008B7010008B7010008B7010008E5
:10009000C1080008B7010008B7010008B70100084F
:1000A000B7010008B7010008B7010008B701000850
:1000B000B7010008B7010008F1320008B7010008D5
:1000C000B7010008B7010008B7010008B701000830
:1000D000B7010008B701000869380008B701000837
:1000E000B7010008B7010008B7010008B701000810
:1000F000B7010008B7010008B7010008B701000800
:10010000B7010008B7010008B7010008B7010008EF
:10011000B5340008C5340008013300081133000865
:10012000B7010008490A0008B7010008B701000834
:10013000B7010008B7010008B7010008B7010008BF
:10014000B701000839090008B7010008B701000825
:10015000B7010008590A0008B701000879380008FB
:10016000B7010008B7010008B7010008B70100088F
:10017000B7010008B7010008B7010008000000003F
:10018000B7010008B7010008DFF80CD000F084FBCD
:1001900000480047C559000878610020064880479C
:1001A00006480047FEE7FEE7FEE7FEE7FEE7FEE75C
:1001B000FEE7FEE7FEE7FEE7D5320008890100080A
:1001C0002DE9F05F0546002092469B46884606468C
:1001D000814640241BE0284641464746224600F01F
:1001E00074FA53465A46C01A914110D31146184624
:1001F000224600F05BFA2D1A67EB01084F462246B3
:100200000120002100F052FA17EB00094E41201E98
:10021000A4F10104DFDC484631462A464346BDE8E6
:10022000F09F40EA01039B0703D009E008C9121FB1
:1002300008C0042AFAD203E011F8013B00F8013BA0
:10024000521EF9D27047D2B201E000F8012B491ECC
:10025000FBD270470022F6E710B513460A46044663
:100260001946FFF7F0FF204610BD2DE9FE4F8046EE
:1002700081EA0300C00F0C46009021F0004123F0FA
:100280000045B8EB0200A94105D240462146904600
:100290001C460B46024623F00040104347D0270D72
:1002A000C7F30A00C3F30A510290401A0190402894
:1002B0006BDAC3F3130040F4801B0098924620B120
:1002C0000023D2EB030A63EB0B0B01985946C0F1F4
:1002D0004002504600F0EAF906460D46504659469F
:1002E000019A00F002FA10EB08006141002487EA4D
:1002F000115284EAE7731A4340D0009A62B3019A1C
:10030000012A4FEA075215DC001B61EB02014FF096
:10031000004202EA0752CDE90042001C41F580117B
:1003200032462B4600F039FA03B0BDE8F08F404664
:100330002146F9E7001B61EB0201001C41F5801327
:1003400000185B412018A2F5001747EB030140EAB3
:10035000D570B6196D4111E06D084FEA360645EAD1
:10036000C0754FEA0752001B61EB0201001C41F50A
:10037000801149084FEA30000019514132462B469E
:1003800003B0BDE8F04F00F0F9B900980122400039
:100390000023D0EB020263EBE073009821464FEAA2
:1003A000E074B8EB000061EB0401E9E783F000437F
:1003B0005BE781F0004158E72DE9FE4F81EA030435
:1003C00004F0004421F0004100944FF0000B23F0B2
:1003D000004350EA01045ED052EA03045BD0C3F349
:1003E0000A54C1F30A552C44A4F2F3340194A0FB3F
:1003F0000254C1F3130141F48011C3F3130343F416
:10040000801301FB024400FB034E840A970A44EA6E
:10041000815447EA8357A4FB076802958D0A05FBC0
:1004200007854FEA932C04FB0C542705029D4FEAE5
:10043000065847EA1637B5EB08056EEB070C870E32
:10044000920E47EA811742EA8312A7FB0201B6EB3C
:100450000B0164EB00042B0D43EA0C335E1844EBF4
:100460001C50DA465146E7FB0201C5F313044FEA7C
:100470000B3343EA14534FEA0432019C43EA060368
:10048000A4F10C040294009CCDE900B400F085F9BD
:1004900003B0BDE8F08F00200146F9E72DE9F04DEB
:1004A00081EA030404F0004B21F0004514464FF0AC
:1004B000000A23F0004150EA050220D054EA01026C
:1004C0001DD0C5F30A570246C5F31303C1F3130049
:1004D000C1F30A5640F4801543F48013A7EB0608D5
:1004E000101BD64608F2FD3873EB050002D308F165
:1004F000010801E092185B41B8F1000F03DA002017
:100500000146BDE8F08D00204FF480110646844678
:100510000EE0171B73EB050705D3121B63EB0503F6
:1005200006434CEA010C49084FEA300092185B413F
:1005300050EA0107EDD152EA030012D082EA04002A
:1005400083EA0501084305D0101BAB4106D2012206
:10055000002306E000224FF0004302E06FF00102AA
:1005600053101AEB06004CEB085110EB0A0041EB5C
:100570000B01BDE8F04D00F001B930B5041E71F17A
:10058000000404DB4FF00044404264EB0101141E00
:1005900073F1000405DB1C464FF00043524263EB4D
:1005A0000403801A994101D3012030BD002030BDE1
:1005B00030B5041E71F1000404DB4FF000444042EA
:1005C00064EB0101141E73F1000405DB1C464FF0BF
:1005D0000043524263EB0403101A8B4101D3012004
:1005E00030BD002030BD0EB5C10F80EAE070084478
:1005F000CA07002140F233438DE80E000A460B463D
:1006000000F0CBF803B000BD0EB540F233410291CB
:100610000021CDE900110A460B4600F0BEF803B0F8
:1006200000BD00F0004230F000400AD0C10D01F5DD
:100630006071C0F3160042EA0151C208400711433D
:10064000704700200146704701F0004330B421F0AC
:10065000004150EA010206D00A0DA2F56072C1F312
:100660001301002A02DC30BC00207047440F44EA2A
:10067000C104C100E01830BC00EBC25000F047B824
:1006800030B50B46014600202022012409E021FA62
:1006900002F59D4205D303FA02F5491B04FA02F55F
:1006A0002844151EA2F10102F1DC30BD202A04DB32
:1006B000203A00FA02F1002070479140C2F1200375
:1006C00020FA03F3194390407047202A04DB203AB4
:1006D00021FA02F00021704721FA02F3D040C2F162
:1006E00020029140084319467047202A06DBCB17A9
:1006F000203A41FA02F043EAE07306E041FA02F3DD
:10070000D040C2F1200291400843194670470029A9
:10071000A8BF7047401C490008BF20F00100704787
:1007200010B4B0FA80FC00FA0CF050EA010404BFE7
:1007300010BC704749B1CCF1200421FA04F411FA3D
:100740000CF118BF012121430843A3EB0C01CB1D81
:100750004FEA00614FEA102042BF002010BC7047F2
:1007600000EBC35010440029A4BF10BC7047401CCC
:10077000490008BF20F0010010BC704710B5141EDE
:1007800073F1000408DA401C41F1000192185B414A
:100790001A4301D120F0010010BD2DE9F04D924621
:1007A0009B4611B1B1FA81F202E0B0FA80F2203238
:1007B0009046FFF77BFF04460F4640EA0A0041EAF5
:1007C0000B0153465A46084313D0114653EA010021
:1007D00019D0C8F140025046FFF777FF05460E4694
:1007E000504659464246FFF761FF084305D00120B5
:1007F00004E020463946BDE8F08D0020054346EA76
:10080000E0762C4337430A986305E40AA0EB08001E
:100810000022FD0A44EA47540A3002D5002001466E
:10082000E9E7010510196941DDE908450019694149
:10083000BDE8F04DA2E7C1F30A52C1F3130140F243
:10084000FF3341F480119A4202DA002001467047DA
:1008500040F233439A42A2F2334202DC5242FFF7A3
:1008600034BFFFF723BF000030B5041E71F1000450
:1008700004DB4FF00044404264EB0101141E73F1AD
:10088000000405DB1C464FF00043524263EB0403B7
:10089000994208BF904230BD064C074D06E0E06823
:1008A00040F0010394E8070098471034AC42F6D3B7
:1008B000FFF76EFC90960008B0960008FEE7000077
:1008C00080B540F6C000C2F2000000F081FA80BDA1
:1008D00010B582B040F69C0CC2F2000C40F2FF1E34
:1008E000CCF800E04FF0000ECCE902EE40F2E25E00
:1008F0000824C2F2000ECCF81040040A8EF8010061
:10090000080A8EF80200100A8EF80400180A8EF801
:10091000060040F6C0008EF803108EF805208EF811
:100920000730C2F2000001AB614672468EF800400B
:1009300000F0FCF802B010BD80B540F6E800C2F24D
:10094000000000F045FA80BD10B582B040F2D03C06
:10095000C2F2000C4FF4007ECCF800E04FF0000E25
:10096000CCE902EE40F2881E0824C2F2000ECCF858
:100970001040040A8EF80100080A8EF80200100ADE
:100980008EF80400180A8EF8060040F6C0008EF8B3
:1009900003108EF805208EF80730C2F2000001AB7C
:1009A000614672468EF8004000F0C0F802B010BDFB
:1009B00010B582B040F69C0CC2F2000C40F2FF1E53
:1009C000CCF800E04FF0000ECCE902EE40F2E25E1F
:1009D0000824C2F2000ECCF81040040A8EF8010080
:1009E000080A8EF80200100A8EF80400180A8EF821
:1009F000060040F6E8008EF803108EF805208EF809
:100A00000730C2F2000001AB614672468EF800402A
:100A100000F08CF802B010BD80B540F67010C2F244
:100A2000000000F0F9FC80BD80B540F61010C2F265
:100A3000000000F0F1FC80BD80B540F6D010C2F29D
:100A4000000000F0E9FC80BD80B540F63020C2F225
:100A5000000000F0E1FC80BD80B540F69020C2F2BD
:100A6000000000F0D9FC80BDD0F800C06FF00F028C
:100A70004AF6AB2352FA8CF2CAF6AA230146A2FB2D
:100A80000330000905A31B5C40F2FF302CEA000094
:100A90005F2A88BF0430C1E91603704700061016AC
:100AA000000610168269816AB2F5005F06D06AB945
:100AB000022912D0012914D0D1B90EE0032917D888
:100AC000DFE801F0020B020F0120704703293CBF51
:100AD000012070471CBF00207047C06AC0F300604F
:100AE0007047C06AA0F1C070B0FA80F0400970474A
:100AF0000020704770470000EFF3108072B600BF0F
:100B0000FEE7000090F82020013A012A04D800688E
:100B100000F11402002004E000F1240201204FF44F
:100B200080211368194311607047000010B590F8D8
:100B300020E0D0F800C0AEF1010EBEF1010FDCF8EC
:100B400008E00DD81EF0E05F10D0CEF3016EBEF1CC
:100B5000030F11D100F1240101204FF4000233E012
:100B600000F1240101204FF480222DE000F1240146
:100B700001204FF4001227E0012000FA0EF0186067
:100B8000886818B14B6840EAC30001E00868400576
:100B9000D1E9033403430CEB0E10C0F88031C0F8E8
:100BA0008441097D012905D100F5C2710B6843F428
:100BB00080730B605168C0F88C11126800F5C07129
:100BC000C0F88821002001220B681A430A6010BD7A
:100BD000B0B590F82020013A012A2FD846F20060E3
:100BE000C4F20000026842F001020260026822F4CE
:100BF0007C520260D1F814E0CC694A6A0368012C87
:100C000043EA022202600EF01F024FF0010303FAD2
:100C100002F2C3696FEA020C23EA0203C36113D034
:100C20002CBBC36803EA0C03C360CB688C8844EA1E
:100C3000034300EBCE0423640B4611E0416A41F408
:100C4000802141620120B0BDC3681343C3600B68BB
:100C50008C8844EA034300EBCE04236401F10C03C7
:100C60008C681B8843EA044300EBCE04636443684A
:100C70008D6943EA0204D1F810E0096A002D08BF2B
:100C800003EA0C0444604369BEF1000F43EA020426
:100C900008BF03EA0C040129446102D1C169114370
:100CA000C161016821F0010101600020B0BD0000B8
:100CB0007047000010B590F82040013C012C0CD882
:100CC000D0F800C079B1DCF81040A4070FD100F1D2
:100CD000240101204FF4001270E000F124010120F2
:100CE0004FF480226AE0DCF80C40A4076AD0046864
:100CF00004EB011CDCF8B0410CF5D87E14F00404C0
:100D00009460DCF8B04119BFE4085460640D1460CD
:100D1000DEF80040002904F00204D460DCF8B4419D
:100D200004F00F041461DCF8B441C4F307249461A7
:100D3000DCF8B4414FEA14445461DCF8B8211A706D
:100D4000026802EB0112D2F8B8214FEA12225A705F
:100D5000026802EB0112D2F8B8214FEA12429A70EF
:100D6000026802EB0112D2F8B8214FEA1262DA707F
:100D7000026802EB0112D2F8BC211A71026802EB80
:100D80000112D2F8BC214FEA12225A71026802EB1A
:100D90000112D2F8BC214FEA12429A71026802EBAA
:100DA0000112D2F8BC214FEA1262DA71006814BF56
:100DB00000F1100100F10C01002020220B681A4301
:100DC0000A6010BD00F1240101204FF40012F5E784
:100DD0002DE9F04F81B0044600684669D0F80490D0
:100DE0008768D0F80CB0D0F810A0D0F81880F107C0
:100DF00003D1002530071CD423E0F90710D00121CE
:100E0000BA07816009D4780700F1AA80380700F199
:100E1000B080204600F0E0FA02E0204600F0DEFA62
:100E20000025F80500F18480F80300F1AA8030075E
:100E300007D51BF0100004D0206845F40075102180
:100E4000C160700708D51BF0080005D02068082194
:100E5000C160204600F0E4F9B00706D52068C068FC
:100E6000800702D0204600F0DDF9700607D51AF0A1
:100E7000100004D0206845F4806510210161B0069F
:100E800008D51AF0080005D0206808210161204625
:100E900000F0F8F9F00606D520680069800702D056
:100EA000204600F0F1F9B00308D519F0100005D084
:100EB000206810214160204600F05EFAF00308D55A
:100EC00019F0080005D0206808214160204600F094
:100ED0008FFA300440F18F805FEA497040F18880DA
:100EE00006F4807008EA102028435FEA8871014602
:100EF00048BF41F00201B20558BF01465FEA4870A1
:100F00000D4648BF45F00405700558BF0D46300535
:100F10006ED518F070006BD010380009052862D823
:100F2000DFE800F0035356595C5F45F008055AE0CE
:100F300020684FF48071BA0581600AD4780512D414
:100F4000380519D4204600F04BFAF8037FF56FAF4F
:100F500017E0204600F046FAF8037FF568AF10E08E
:100F60004FF400655DE705F50055F8037FF55FAFC9
:100F700007E04FF4805554E705F58045F8037FF509
:100F800056AF20684FF48031BA0381600AD47803E9
:100F90000FD4380313D4204600F026FA30073FF56B
:100FA00048AF4EE7204600F021FA30073FF541AF49
:100FB00047E705F5004530073FF53BAF41E705F54D
:100FC000803530073FF535AF3BE745F010050AE0C7
:100FD00045F0200507E045F0400504E045F08005B8
:100FE00001E045F480752068816921F0700181611C
:100FF0002068042141602DB1606A28436062204668
:10100000FFF756FE01B0BDE8F08F0000B0B5C8B1E3
:10101000044690F8200010B9204600F071F82068CE
:10102000016821F00201016000F014FC054600BFD8
:1010300020684168890707D500F00CFC401B0B288D
:10104000F6D312E00120B0BD016841F0010101605A
:1010500000F000FC054600BF20684168C9070DD1BB
:1010600000F0F8FB401B0B28F6D3606A052140F422
:1010700000306062012084F82010B0BD217E02683B
:10108000012922F0800208BF80320260617E02687E
:10109000012922F0400208BF40320260A17E0268AE
:1010A000012922F0200208BF20320260E17E02689E
:1010B000012922F0100218BF10320260217F02685D
:1010C000012922F0080208BF08320260617F02682D
:1010D000012922F0040208BF04320260D4E901C2EF
:1010E000D4E9033561691A432A431143ACF1010283
:1010F0001143C16100200121606284F82010B0BD5D
:1011000010B586B00021CDE90411CDE902110068C7
:1011100046F60002C4F200029042019134D046F239
:101120000041C4F20001884278D140F25801C2F275
:1011300000010A6843F64000C4F20200531C0B6031
:1011400052B900210091016841F00071016001680D
:1011500001F00071009100990021009150F8101CDD
:10116000142441F0080140F8101C50F8100C00F055
:101170000800009000980320019040F20040C4F263
:10118000020000F5006036E043F64000C4F20200C1
:101190000091016841F080610160016801F08061A7
:1011A0000091009940F25801C2F200010A68531CF4
:1011B0000B6052B900210091016841F0007101609B
:1011C000016801F00071009100990021009150F830
:1011D000101C412441F0020140F8101C50F8100C82
:1011E00000F00200009000984FF44050019040F24F
:1011F0000040C4F202000221029100210391032168
:1012000004910921059101A900F048FA2046052121
:10121000002200F0BFFB204600F0B8FB06B010BD76
:101220007047000080B58AB003AA01AB0021FFF728
:1012300041FD0398A0F20121072920D80138C1B24D
:10124000BDF80420890051FA80F040F2D20112BAB0
:10125000C2F20001120C31F8103021F8102001EB1D
:101260004000BDF80610BDF8082009BA090C4180FD
:1012700011BA9DF80A20090C0381818082710AB09D
:1012800080BD00007047000080B58AB003AA6B469D
:101290000121FFF70FFD0398B0F5806F26DAA0F269
:1012A0000521042965D20138C1B2BDF800208900AA
:1012B00051FA80F040F2221112BAC2F20001120C6F
:1012C00031F8103021F8102001EB4000BDF8021079
:1012D000BDF8042009BA090C418011BA9DF8062016
:1012E000090C0381818082710AB080BDB0F5A06FC6
:1012F0000FDAB0F5806F1CD0B0F58A6F39D141F2AA
:10130000D030C2F2000040699DF8001001720AB0AE
:1013100080BD1FD0B0F5C06F2BD141F2D030C2F2EA
:1013200000004169009A0A604069019941600AB071
:1013300080BD40F2E833C2F20003DDE9000141F272
:10134000685C1A68C2F2000CCCE90001501C1860FD
:101350000AB080BD40F2E833C2F20003DDE90001CB
:1013600041F2705C1A68C2F2000CCCE90001501C1A
:1013700018600AB080BD000070470000B0B5044698
:1013800090F8200001281DD1022084F82000206858
:10139000016821F00101016000F05CFA054600BF20
:1013A00020684068C00713D000F054FA401B0B2897
:1013B000F6D3606A40F400306062052084F82000B3
:1013C0000120B0BD606A40F4002060620120B0BD21
:1013D00000206062B0BD0000704700007047000050
:1013E0007047000070470000704700007047000021
:1013F0007047000090F83510022909D1052180F8C6
:1014000035100068016821F001010160002070477B
:101410008021416501207047F0B581B0044600206D
:10142000009040F20C00C2F200000268D4E916609D
:1014300048F2B51337680821C1F64E33814039426E
:10144000A2FB03250CD0226813685B0708D513683C
:1014500023F004031360B160616D41F00101616527
:1014600001218140394208D022685269120604D510
:10147000B160616D41F00201616504218140394232
:1014800008D022681268920704D5B160616D41F0FE
:101490000401616510218140394215D0206802683D
:1014A000120711D5B16002680168520306D4C9055C
:1014B00006D4016821F00801016001E0080342D46C
:1014C000216C09B120468847E16D202000FA01F225
:1014D0003A4244D020680368DB0640D5B26094F8F5
:1014E00035300268052B1ED122F0160202604269D7
:1014F00022F080024261226C0AB9A26C1AB1026821
:1015000022F0080202603F208840B060002084F88A
:101510003400012084F83500216D002940D0204698
:10152000884701B0F0BD0168520310D4C90512D438
:10153000016821F010010160002084F834000120CE
:1015400084F8350007E0A16C0029BBD1BCE7080393
:1015500001D4616C00E0E16B09B120468847606D01
:10156000F0B1606DC00717D0052084F83500206801
:10157000A90A026822F00102026000BF009A01324B
:101580008A42009202D80268D207F7D1002084F87C
:101590003400012084F83500E16C09B12046884709
:1015A00001B0F0BD2DE9F041044600F053F9C4B19B
:1015B0000546002084F83400022084F835002068B5
:1015C000016821F00101016026683068C0070BD076
:1015D00000F040F9401B0528F6D903212022032002
:1015E00042E00120BDE8F081306848F23F01CFF2CF
:1015F0001001251D00EA010C2ECDD4E9050E41EAAB
:101600000C01114319432943D4E90778084340EA00
:101610000E01606A3943042841EA080103D1D4E984
:101620000B231143194331607169042821F007012C
:1016300041EA00050CD1D4E90A1045EA010538B1A8
:101640002046FFF72FFA18B10121402201200BE0BC
:1016500020467561FFF708FAE16D3F2202FA01F1B9
:101660008160002201210020626584F83510BDE808
:10167000F0810000B0B5044600F0ECF8054640F2F9
:101680004800C2F200000078611C18BF044400BF8B
:1016900000F0E0F8401BA042FAD3B0BD2DE9F04FB6
:1016A00083B000F13E4202F1FF7243F6004E4FEA72
:1016B000B22241F60047C4F2010E0192C4F20207C1
:1016C00008224FF0010B00254FF000084FF00009F1
:1016D000B84208BF072200920AE000BF09F10109E1
:1016E00008F10408B9F1100F05F1020500F0A1801E
:1016F0000F680BFA09F417EA040CEFD0D1F804A034
:10170000BAF1120F15D80BFA0AF717F0061F10D00E
:1017100087680322CE68AA4027EA0202AE4032431D
:1017200082604268A243CAF3001404FA09F4224317
:101730004260C26803238E6803FA05F4A2436FEA8D
:10174000040B06FA05F422434AF01004122CC2607E
:101750000FD16FF0030202EA5902024408F01C069E
:101760000F23146A03FA06F70B69BC43B340234303
:10177000136202684B6802EA0B0203F00304AC40F8
:101780002243DB004FF0010B0260A7D5002243F695
:1017900044030292C4F202031A684FF6084A42F464
:1017A00080421A601A68CFF6FF7A02F480420292F1
:1017B000029A29F00302724452F80A3008F00C042D
:1017C0000F26A640019FB343009E072F38BF3E4619
:1017D00006FA04F4234342F80A30DEF800204B688E
:1017E00042EA0C04DE0358BF22EA0C04CEF80040A3
:1017F000DEF804209E0342EA0C0458BF22EA0C04DF
:10180000CEF80440DEF80820DE0242EA0C0458BF9D
:1018100022EA0C04CEF8084043F60C44C4F201045A
:1018200022689B0242EA0C0358BF22EA0C032360A1
:1018300054E703B0BDE8F08F42690A408A4208BF0E
:101840000904816170470000002A08BF0904816112
:101850007047000045F29850C2F2000000687047DF
:1018600040F2480045F29851C2F20000C2F2000175
:1018700000780A68104408607047000080B543F69D
:101880000040C4F20200016841F400710160016887
:1018900041F480610160016841F4807101600320BE
:1018A00000F088F8002000F005F800F04BF8002068
:1018B00080BD000010B586B001463720002200240C
:1018C00000F068F8372000F061F843F6400001941A
:1018D000C4F20200016841F020010160006869461D
:1018E00000F020000190019801A800F017F900F025
:1018F0003BF94DF683614000C4F21B31A0FB0101AE
:101900004FF0FF3000EB914140F6703041F2004261
:10191000C2F20000C4F2000240F2E733C0E9002145
:10192000C0E90243046100F073FB10B1012006B06E
:1019300010BD40F67030C2F2000000F0BFFB06B0F0
:1019400010BD000080B582B0002043F64001019038
:10195000C4F202014A6842F480424A604A6802F4D2
:1019600080420192019A00900868002240F0805065
:10197000086008680F2100F08050009000986FF018
:10198000010000F007F802B080BD000080B501F052
:10199000B5FF80BD70B514460D46064601F0BEFF8A
:1019A0002946224601F0F2FA0146304601F0BEFF18
:1019B00070BD000080B501F0CBFF80BD2DE9F04186
:1019C000002800F08B8043F60808C4F202080446A1
:1019D000D8F8F8030D4600F00F00884207D288F8C7
:1019E000F853D8F8F80300F00F00A84276D1206829
:1019F000810717D5410705D5D8F8001041F4E0510B
:101A0000C8F80010010705D5D8F8001041F460416E
:101A1000C8F80010D8F80010A26821F0F0011143B6
:101A2000C8F80010C0073FD1D8F8F80300F00F0045
:101A3000A84207D988F8F853D8F8F80300F00F0047
:101A4000A8424BD12068410707D5D8F80010E268BA
:101A500021F4E0511143C8F80010000708D5D8F868
:101A60000000216920F4604040EAC100C8F800008D
:101A700000F09EF8D8F8001049F20032C1F30311CB
:101A8000C0F60002515C40F20C0220FA01F140F273
:101A90004C00C2F200000068C2F200021160FFF7C1
:101AA00009FF0020BDE8F0816068811E022907D28D
:101AB00058F8081C89015CBF0120BDE8F08110E0E6
:101AC000012807D158F8081C89035CBF0120BDE834
:101AD000F08106E058F8081C890702D40120BDE80F
:101AE000F081D8F8001021F003010843C8F8000085
:101AF000FFF7B0FE064641F2883700BFD8F8000075
:101B0000616800F00C00B0EB810F8DD0FFF7A2FEF2
:101B1000801BB842F2D90320BDE8F0810F22026099
:101B200043F60802C4F20202136803F003034360A1
:101B3000136803F0F0038360136803F4E053C36099
:101B4000D2F800C04FF4E05303EADC030361D2F89B
:101B5000F80300F00F0008607047000040F20C002E
:101B6000C2F200000068704780B5FFF7F7FF43F648
:101B70000801C4F20201096849F21032C1F382215E
:101B8000C0F60002515CC84080BD000080B5FFF780
:101B9000E5FF43F60801C4F20201096849F2103278
:101BA000C1F34231C0F60002515CC84080BD000064
:101BB00010B543F60404C4F20204606800F00C019E
:101BC00042F200400829C0F2F40007D0042918BFEF
:101BD00010BD41F20020C0F27A0010BD216801F072
:101BE0003F02216823684902C3F3881105D4A1FB91
:101BF00000010023FEF7E4FA06E041F20020C0F203
:101C00007A004843B0FBF2F021680222C1F301419F
:101C100002EB4101B0FBF1F010BD00002DE9F041F5
:101C200082B0002800F098800446007843F6000651
:101C3000C007C4F2020643D0B06800F00C000428CC
:101C400005D1306880033BD56068C8BB84E0B068CC
:101C500000F00C00082802D170684002F1D46568D9
:101C6000B5F5A02F0AD0B5F5803F0BD0306820F431
:101C700080303060306820F4802006E0306840F426
:101C800080203060306840F480303060FFF7E2FD43
:101C9000002D054611D000BF3068800310D4FFF737
:101CA000D9FD401B6428F7D918E100BFFFF7D2FD2A
:101CB000401B64284FF003004BD830688003F5D4F4
:101CC0002078800719D5B06810F00C0F08D0B068E4
:101CD00000F00C00082840F08080706840027CD43E
:101CE0003068800702D5E068012835D13068216965
:101CF00020F0F80040EAC1003060207800072FD4BF
:101D00002078400743D4A56915B3B06800F00C00F3
:101D1000082840F09580012D1ED07068E16900F41C
:101D200080028A4218D1216A00F03F028A4213D110
:101D300047F6C071626A014091420DD1A16A00F478
:101D400040328A4208D1E16A00F07060884203D1D3
:101D5000002002B0BDE8F081012002B0BDE8F081B2
:101D60006069002840F20000C4F2472057D00121EA
:101D7000C0F8801EFFF76EFD054600BF706F80073C
:101D8000BED4FFF767FD401B0228F7D9A6E0306CF0
:101D900010F080580AD100200190306C40F0805043
:101DA0003064306C00F080500190019847F20007D9
:101DB000C4F200073868C00524D4386840F4807045
:101DC0003860FFF747FD05463868C0051AD4FFF7AD
:101DD00041FD401B0228F7D980E0E068002851D07F
:101DE0000020C4F2472001210160FFF733FD0546C2
:101DF000306880073FF57AAFFFF72CFD401B0228C3
:101E0000F6D96BE0A568052D50D0012D52D0306F6A
:101E100020F001003067306F20F004004DE0002119
:101E2000C0F8801EFFF716FD054600BF706F8007E3
:101E30007FF566AFFFF70EFD401B0228F6D94DE097
:101E40000027C4F2472700203866FFF703FD022D64
:101E500005460BD13068800158D5FFF7FBFC401BCD
:101E600002284FF00300F5D973E700BF3068800106
:101E70007FF56EAFFFF7EEFC401B02284FF003002A
:101E8000F4D966E70020C4F2472000210160FFF783
:101E9000E1FC0546306880077FF52FAFFFF7DAFCDD
:101EA000401B02284FF00300F4D952E7306F40F096
:101EB00004003067306F40F001003067FFF7CAFC64
:101EC000002D054641F2883714D000BF306F8007DF
:101ED00013D4FFF7BFFC401BB842F7D9032002B070
:101EE000BDE8F081FFF7B6FC401BB8424FF003009D
:101EF0003FF62FAF306F8007F4D4B8F1000F7FF4B6
:101F000002AF306C20F080503064FCE604F11C0518
:101F10002FCD084340EA8210D9034FF6FF72914358
:101F2000A1F5803140EA0560084370600120386601
:101F3000FFF790FC044600BF306880013FF508AF12
:101F4000FFF788FC001B02284FF00300F4D900E7DC
:101F5000704700007047000010B590F83C20012A3F
:101F60004FF0020252D0012380F83C3080F83D202F
:101F70000268D2F804E0D2F808C00C682EF07003B2
:101F8000234341F2FF74C4F20004A24253600DDC0B
:101F900040F2FF73C4F200039A4215DCB2F1804FA5
:101FA00029D040F20043C4F2000322E040F2FF33A4
:101FB000C4F201039A4212DC41F60003C4F20003AA
:101FC0009A4218D0002312E040F60003C4F2000346
:101FD0009A4210D040F60043C4F2000309E044F2F4
:101FE0000003C4F201039A4205D040F20043C4F258
:101FF00001039A4204D149682CF08003194391608F
:102000000121002280F83D1080F83C20104610BDD0
:10201000002804BF0120704710B5044690F83D0029
:1020200028B9002084F83C00204600F00DF802207A
:1020300084F83D002068211D01F072F9012084F828
:102040003D00002010BD000010B582B0006841F2D4
:102050000001C4F20001884216D040F60001C4F22B
:102060000001884228D10020019043F64000C4F2CC
:10207000020001681E2441F004010160006800F0C4
:102080000400019001980FE00020009043F640000A
:10209000C4F202000168362441F0100101600068BA
:1020A00000F0100000900098204605210022FFF764
:1020B00071FC2046FFF76AFC02B010BD0068C168E1
:1020C00041F00101C160816801F00701062903D0D8
:1020D000016841F0010101600020704710B504461D
:1020E00090F83C0001284FF0020008BF10BD01220B
:1020F00084F83C2084F83D0020684FF677738268AE
:102100009A4382600A683F2A14DD5F2A18DD602A3C
:1021100028D0B2F5005F2DD0702A40D1D1E9012C32
:10212000CB68614601F08EF92068816841F0770143
:10213000816034E01F2A0FDC92B1102A10D02EE00B
:10214000402A23D0502A2AD14B68CA68194601F088
:102150008DF92068502120E0202A01D0302A1ED19C
:1021600011461AE04B68CA68194601F091F92068D7
:10217000602112E0D1E9012CCB68614601F062F9DF
:102180002068816841F48041816008E04B68CA683A
:10219000194601F06BF92068402101F05FF9012038
:1021A00084F83D00002084F83C0010BD704700001A
:1021B00010B5044600680169890744BFC1685FEA39
:1021C000817138D420680169490744BFC1685FEA5A
:1021D00041713CD420680169090744BFC1685FEAC6
:1021E000017141D420680169C90644BFC1685FEA32
:1021F000C16145D420680169C9071CBFC1685FEA95
:10220000C1714AD120680169090644BFC1685FEA0B
:10221000016149D420680169490644BFC1685FEA89
:10222000416148D420680169890644BFC1685FEAFA
:10223000816147D410BD6FF0020101610121217756
:102240008069800745D02046FFF7B0FF47E06FF078
:102250000401016102212177806910F4407F41D09F
:102260002046FFF7A3FF43E06FF00801016104215E
:102270002177C06980073ED02046FFF797FF40E0F6
:102280006FF01001016108212177C06910F4407FCF
:102290003AD02046FFF78AFF3CE06FF00101016170
:1022A000204600F03FF8ADE76FF080010161204665
:1022B000FFF74EFEAEE76FF040010161204600F0EF
:1022C00051F8AFE76FF0200101612046FFF742FEB1
:1022D00010BD204600F022F8204600F021F8002032
:1022E00020776FE7204600F019F8204600F018F834
:1022F000002020776EE7204600F010F8204600F01E
:102300000FF8002020776DE7204600F007F8204600
:1023100000F006F8002020776CE70000704700000E
:102320007047000080B5006841F20041C4F200012E
:10233000884213D040F63030C2F200000068C16815
:10234000C90708BF80BD45F28C11C2F200010A68BE
:1023500001320A606FF00101016180BDFFF780FA70
:1023600080BD0000704700007047000010B5026893
:1023700004461068D168536900F02F02202A01F04A
:10238000200204D11AB1204601F018F910BD5FEA0D
:10239000007C1EBF03F0010E01F4907313EB0E03DB
:1023A0000DD10840010606D4400658BF10BD204696
:1023B00001F0F8F810BD204601F0F6F910BDC30792
:1023C00018BF11F4807302D1430706D40CE0E36B0D
:1023D00043F00103E363430706D5BEF1000F03D0CA
:1023E000E36B43F00203E363830706D5BEF1000FFE
:1023F00003D0E36B43F00403E363BCF1000F06D5A5
:1024000052EA0E0203D0E26B42F00802E263E26B92
:10241000002ACFD00840800602D5204601F0CEF831
:1024200020684069E16B00F0400001F008014018AD
:102430001DD0204601F0A8F820684169490612D550
:10244000416921F040014161606B60B143F2795113
:10245000C0F600010165FEF7CDFF0028AAD0606B31
:10246000016D884710BD2046FFF77EFF10BD204656
:10247000FFF77AFF0020E06310BD0000002804BFD2
:102480000120704710B5044690F8390028B90020A3
:1024900084F83800204600F021F8242084F8390020
:1024A0002068C16821F40051C160204601F0C6F8DF
:1024B0002068016921F490410161416921F02A01FC
:1024C0004161C16841F40051C16000202021E063F6
:1024D00084F8391084F83A1010BD00002DE9F04F4F
:1024E00087B00446006844F6FF71C4F200018842D8
:1024F0004FF000010691CDE90411CDE9021140F33E
:10250000828045F20001C4F20001884200F0D780C9
:1025100041F20001C4F20101884200F0438141F21E
:102520000041C4F20101884240F0B881002643F620
:1025300030000196C4F20200416946F2100841F0F1
:10254000200141614169C4F2020801F020010191BA
:1025500001990196016841F004010160006802A937
:1025600000F0040001900198C02002900220CDE903
:10257000030603200590082006900020C4F2020004
:1025800000F50060FFF78AF840F6302508F5836013
:10259000C2F200054FF020674FF48069C5E90007DB
:1025A0002846C5E90266C5E90496C5E90666C5E997
:1025B0000866FEF7F7FF002818BFFEF79DFA65636F
:1025C000AC6340F6902508F59260C2F20005402108
:1025D000C5E9000705F1080080E842022846C5E980
:1025E0000566C5E907666E62FEF7DCFF002818BFC6
:1025F000FEF782FA4720052100222563AC63FFF72E
:10260000C9F94720C9E044F20041C4F20001884200
:1026100000F0F58044F60041C4F20001884240F029
:102620003D81002643F630000196C4F202000169A4
:1026300041F400210161016901F400210191019936
:102640000196016841F0010101600068022100F07B
:102650000100019001980320039101210290CDE92E
:102660000410082006900020C4F2020002A9FFF71F
:1026700015F846F21000C4F2020040F61015303092
:10268000C2F200054FF000614FF4806285E843001C
:102690002846C5E90362C5E90566C5E907666E62B5
:1026A000FEF780FF002818BFFEF726FA3420052128
:1026B00000226563AC63FFF76DF934206DE00026FE
:1026C00043F630000196C4F202000169002741F48C
:1026D000801101610169C4F2020701F480110191C6
:1026E00001990196016802AD41F0040101600168A1
:1026F0004FF0020801F0040101910199019601686F
:102700004FF0010941F00801016000684FF0030A31
:1027100000F00800019001984FF4805002904FF0B3
:10272000080B07F500602946CDF80C80CDF8109015
:10273000CDF814A0CDF818B0FEF7B0FF042002A920
:1027400081E8010F07F540602946FEF7A7FF40F634
:10275000701546F21000C2F20005C4F202004FF0FC
:1027600000614FF4806285E843004FF40030C5E912
:102770000362C5E90566EE61C5E908062846FEF76D
:1027800011FF002818BFFEF7B7F9352005210022F8
:102790006563AC63FFF7FEF83520FFF7F7F807B085
:1027A000BDE8F08F002043F630010190C4F2020131
:1027B0004A6942F010024A614A6902F0100201922D
:1027C000019A01900A6842F002020A60096801F069
:1027D000020101910199C02102910221CDE903106A
:1027E00003200590072006900020C4F2020000F5A7
:1027F000806002A9FEF752FF07B0BDE8F08F002607
:1028000043F630000196C4F20200016941F4003140
:102810000161016901F4003101910199019601689A
:1028200041F001010160006802A900F0010001907F
:1028300001980C2002900220CDE9030603200590A8
:10284000072006900020C4F20200FEF727FF46F2A0
:102850001000C4F2020040F6D0157830C2F2000534
:102860004FF000614FF4806285E843002846C5E9D7
:102870000362C5E90566C5E907666E62FEF792FE6A
:10288000002818BFFEF738F92620052100226563CD
:10289000AC63FFF77FF82620FFF778F807B0BDE8B4
:1028A000F08F0000034690F83A0020280AD1002952
:1028B0004FF0010018BF002A00D1704793F838008C
:1028C000012801D1022070479962002022219A85B7
:1028D000DA85D86383F83A10196883F83800CA6833
:1028E00042F48072CA604A6942F001024A61CA68D1
:1028F00042F02002CA607047704700002DE9F041A5
:10290000044690F8390020280DD10E4600294FF0DA
:10291000010052D01746002A08BFBDE8F08194F8A4
:102920003800012802D10220BDE8F081012084F89E
:1029300038004FF0000821201D46C4F83C8084F880
:102940003900FEF787FFA784E78484F83880E18C9C
:10295000804661B92046402142462B4600F052FF96
:1029600038B30320BDE8F081E08C0028F2D0E08C81
:1029700080210138E084A768204642462B4600F0BB
:1029800041FFB7F5805F0DD10028EAD13088216979
:1029900022686FF35F200029506014BF01360236B1
:1029A000E2E700BF0028DCD116F8010B216848607F
:1029B000DAE7202084F839000020BDE8F08100002B
:1029C000704700004EF60C500421CEF20000C0F219
:1029D000FA5100BF0160FDE780B540F6C00046F245
:1029E0000041C2F20000C4F200010322002380E88B
:1029F0000E0000F10C014FF4102C4FF4001E81E882
:102A0000085083618383FEF701FB002818BFFEF79F
:102A100073F880BD80B540F6E80046F60001C2F2CA
:102A20000000C4F200010322002380E80E0000F140
:102A30000C014FF4102C4FF4001E81E80850836104
:102A40008383FEF7E3FA002818BFFEF755F880BD30
:102A500080B582B0002043F630010190C4F202013B
:102A60000A6842F400120A600A6802F40012019235
:102A7000019A00900868002240F48000086008680D
:102A8000052100F48000009000980B20FEF782FFE3
:102A90000B20FEF77BFF0D2005210022FEF77AFFB9
:102AA0000D20FEF773FF102005210022FEF772FFB4
:102AB0001020FEF76BFF392005210022FEF76AFF88
:102AC0003920FEF763FF452005210022FEF762FF53
:102AD0004520FEF75BFF02B080BD000010B5C0B01E
:102AE00049F23C20C0F6000090E80E50D0E90540C5
:102AF00039913A923B93CDF8F0C0CDF8F4E0CDE9AE
:102B00003E4039A8002102F0E5FF40F2EC31C2F26C
:102B10000001086049F25820C0F6000090E81E50FD
:102B200080693291389032A80021339234933594E1
:102B3000CDF8D8C0CDF8DCE002F0CCFF40F2C051B7
:102B4000C2F20001086049F22020C0F6000090E8BF
:102B50001E5080692B9131902BA800212C922D932F
:102B60002E94CDF8BCC0CDF8C0E002F0B3FF40F227
:102B70008011C2F20001086049F2AC20C0F60000EA
:102B800090E81E50806924912A9024A80021259263
:102B900026932794CDF8A0C0CDF8A4E002F09AFFC8
:102BA00040F6F841C2F20001086049F2C820C0F6C0
:102BB000000090E81E5080691D9123901DA80021FF
:102BC0001E921F932094CDF884C0CDF888E002F0C7
:102BD00081FF40F6FC41C2F20001086049F2E420A6
:102BE000C0F6000090E81E50806916911C9016A84F
:102BF0000021179218931994CDF868C0CDF86CE0B5
:102C000002F068FF41F2CC31C2F20001086049F2E3
:102C10009020C0F6000090E81E5080690F9115903A
:102C20000FA80021109211931294CDF84CC0CDF84A
:102C300050E002F04FFF40F6F441C2F2000108609C
:102C400049F27420C0F6000090E81E508069089197
:102C50000E9008A8002109920A930B94CDF830C079
:102C6000CDF834E002F036FF40F6F041C2F2000148
:102C7000086049F20420C0F6000090E81E50806908
:102C80000191079001A80021029203930494CDF8CA
:102C900014C0CDF818E002F01DFF40F27411C2F22A
:102CA0000001086040B010BD2DE9F04186B000275A
:102CB00043F630000597CDE90377CDE9017700971A
:102CC000C4F20200016840F6004441F08001016056
:102CD0000168C4F2020401F080010091009900979C
:102CE0000168002241F00101016001684FF4706841
:102CF00001F00101009100990097016841F0020183
:102D00000160016801F002010091009900970168DB
:102D100041F008010160016801F00801009100998B
:102D20000097016841F004010160016801F00401AD
:102D3000009100990097016841F01001016000685E
:102D40004FF4706100F01000009000982046FEF7EC
:102D50007BFD04F580652846012100220126FEF74F
:102D600073FDCDE901860DF1040820464146CDE909
:102D70000377FEF793FC28464146CDE90166CDE98D
:102D80000377FEF78BFC06B0BDE8F08180B586B016
:102D900040F6F02040F600020021C2F20000C4F22A
:102DA0000002A72342F20F7CCDE90411CDE9021104
:102DB000CDE90011C0E90023C0E9021C01618021B6
:102DC0008161FFF725F9002818BFFDF795FE4FF444
:102DD0008050029040F6F020C2F2000002A9FFF7F6
:102DE0007DF9002818BFFDF787FE0020CDE900001F
:102DF00040F6F020C2F200006946FFF7ADF8002867
:102E000018BFFDF779FE06B080BD000010B582B096
:102E100040F6303041F20001C2F20000C4F200017D
:102E200000240622632380E816008021CDE90044B7
:102E3000C3608161FFF7ECF8002818BFFDF75CFE66
:102E400040F63030C2F200006946CDE90044FFF799
:102E500083F8002818BFFDF74FFE02B010BD000038
:102E600080B540F6304044F60041C2F20000C4F2A2
:102E7000000100234FF00C0C4FF4E13280E80E000B
:102E8000C0E90333C0E905C3C361FFF7F7FA0028BF
:102E900018BFFDF731FE80BD10B540F6704045F219
:102EA000000C48F2A062C2F20000C4F2000CC0F2B2
:102EB00001024FF4805300214FF4806E0C24C0E9CE
:102EC00000C2C0E90231C0E904E4C0E90611FFF71D
:102ED000D5FA002818BFFDF70FFE10BD80B540F6EB
:102EE000B03041F20001C2F20000C4F2010100233F
:102EF0004FF00C0C4FF4E13280E80E00C0E90333D0
:102F0000C0E905C3C361FFF7B9FA002818BFFDF790
:102F1000F3FD80BD80B540F6F03044F20041C2F2CE
:102F20000000C4F2000100234FF00C0C4FF4E1321A
:102F300080E80E00C0E90333C0E905C3C361FFF7B1
:102F40009DFA002818BFFDF7D7FD80BD80B540F67B
:102F5000B04041F20041C2F20000C4F2010100237E
:102F60004FF00C0C4FF4E13280E80E00C0E903335F
:102F7000C0E905C3C361FFF781FA002818BFFDF758
:102F8000BBFD80BDFEE70000FEE7000000F007008B
:102F900080F00703042B28BF04234FF0FF3C0338C5
:102FA0000CFA03F338BF0020994381400CFA00F07B
:102FB00022EA00000843704780B1D0E90F1230EEDA
:102FC000C02AC0E910120178C0ED060A80ED070A98
:102FD00080ED0F2A29B190ED080A70479FED2A0A6B
:102FE000704790ED023A90ED010A90ED0A5A22EEF8
:102FF000033A90ED051A22EE000A35EE033A90ED01
:10300000105A90ED034A80ED090A80ED0A3AD0E9A2
:103010000C1232EE452AB4EE413A80ED0C2A22EE33
:10302000042AF1EE10FA4163826380ED0B2A02DD7F
:1030300080ED0A1A08E0B1EE411AB4EE413AF1EE21
:1030400010FAB8BF80ED0A1A90ED0A3A90ED041A12
:1030500030EE030A32EE000AB4EE410AF1EE10FA45
:1030600080ED080A04DD80ED081A90ED080A70472B
:10307000B1EE411AB4EE410AF1EE10FAB8BF80ED9C
:10308000081A90ED080A704700000000002808BFE9
:10309000704780B518303021FDF7DCF8BDE880407E
:1030A00070470000002818BF002A00D1704780B583
:1030B000136801704360536828218360926880ED33
:1030C000040AC260C0ED050A2030FDF7C3F8BDE870
:1030D0008040704700000000000000000000000079
:1030E000EFF30980BFF36F8F154B1A681EF0100FB6
:1030F00008BF20ED108A20E9F04F10602DE909008B
:103100004FF0500080F31188BFF34F8FBFF36F8FE4
:1031100004F0D0FA4FF0000080F31188BDE80900F8
:1031200019680868B0E8F04F1EF0100F08BFB0EC47
:10313000108A80F30988BFF36F8F704700BF00BF0C
:10314000040E002080B540F67043C2F20003D3F8AD
:1031500000C0DCF8143043F04003CCF81430DCF845
:103160000C3043F01003CCF80C3040F67013C2F270
:103170000003D3F800E0DEF800C02CF00103CEF825
:103180000030DEF80030DB070AD000BFDEF8003088
:1031900023F00103CEF80030DEF80030DB07F5D174
:1031A00045F20403C4F20003CEF80830CEF80C0058
:1031B000CEF81010CEF80420DEF8000040F4802095
:1031C000CEF80000DEF8000040F00100CEF800006C
:1031D00080BD0000000000000000000000000000B2
:1031E000074B19680868B0E8F04F80F30988BFF30F
:1031F0006F8F4FF0000080F31188704700BF00BF51
:10320000040E002080B54FF0500080F31188BFF30A
:103210006F8FBFF34F8F04F0D5FE30B14EF60450E0
:10322000CEF200004FF080510160002080F3118841
:1032300080BD000070B592B006AC20463021FDF78D
:1032400009F8002543F640000595CDE90355CDE981
:1032500001550095C4F202000168022641F0805138
:103260000160006800F080500090009847F2000074
:103270000095C4F20000016841F4804101600068DB
:1032800000F48040009000980120099010200A90DE
:1032900008200696CDE90C650E90A820CDE90F0612
:1032A000042011902046FEF7B9FC88B90F20CDE923
:1032B00001064FF4A05004904FF48050059001A8EF
:1032C00005210395FEF77AFB002804BF12B070BDFC
:1032D000FDF712FC4EF68850CEF20000016841F472
:1032E000700101604FF0006140F8801C70470000E1
:1032F00080B540F6F020C2F20000FEF759FF80BD15
:1033000080B540F63030C2F20000FEF751FF80BDBC
:1033100080B540F67030C2F20000FEF749FF80BD74
:1033200010B540F6FF3E0368C4F2000E40F2004CB8
:103330007045C4F2010C0FDCB0F1804F19D040F29F
:103340000042C4F20002904213D040F60002C4F2E0
:10335000000290420DD010E040F60042C4F200029C
:10336000904206D0604504D00022C4F2010290428F
:1033700003D14A6823F07003134341F6FF72C4F28D
:10338000000290420DDC70451FDCB0F1804F41D04F
:1033900040F20042C4F2000290423BD040F60002EC
:1033A00021E043F6FF72C4F20102904220DC42F2B7
:1033B0000002C4F2000290422CD00022C4F20102AA
:1033C000904227D0604525D028E040F60042C4F264
:1033D000000290421ED041F60002C4F20002904268
:1033E00018D041F60042C4F20002904212D015E01B
:1033F00044F20002C4F2010290420BD044F60002F3
:10340000C4F20102904205D044F20042C4F201022B
:10341000904203D1CA6823F44073134323F080021F
:103420004B69D1F800E08C681A430260C46240F432
:103430008062C0F828E0624504BF09690163012188
:10344000416110BDD0F808C011432CF47F4C41EA13
:10345000032141EA0C01816070470000826822F07C
:103460007002114341F0070181607047D0F820C01D
:10347000036A23F001030362836923F0F00343EA44
:1034800002122CF00A0319438261016270470000A6
:10349000036A23F0100303628369D0F820C023F489
:1034A000704343EA02322CF0A00343EA0111826127
:1034B0000162704780B540F63040C2F20000FEF76E
:1034C00055FF80BD80B582B040F67040C2F200006A
:1034D0000068016889062FD445F20001C4F200019A
:1034E0000968C90646D5002100910168242300918E
:1034F00040680090009840F67010C2F2000000682A
:1035000002680168120321F0010101604168436013
:1035100089B21AD40268122942F4002202600268B9
:1035200042F00102026025D141F28430C2F2000073
:1035300003F02CFB02B080BD0021019101680191D4
:1035400040680190019802B080BD46F21002C4F2BA
:1035500002021368122923F400231360026842F068
:103560000102026006D141F28430C2F20000243030
:1035700003F00CFB02B080BD80B5806B0021C185DB
:10358000C184FEF7F1FE80BD0168CA6822F4907222
:10359000CA604A6922F001024A61202180F83A108B
:1035A0007047000080B50168CA6822F04002CA6016
:1035B000202180F83910FFF703FA80BD80B590F81C
:1035C0003A10222938D18168B1F5805F0AD10268AA
:1035D0000369816A52688BB1836AD2B20A80591C2E
:1035E000816211E0016802694968002A826A18BF95
:1035F00001F07F01531C8362117005E0836A6FF351
:103600005F220A80991C8162C18D01390A04C1853B
:1036100018BF80BD0168CA6822F02002CA60CA686B
:1036200022F48072CA604A6922F001024A612021B4
:1036300080F83A10FFF760F980BD0000B0B505468C
:10364000006805F108030ECB0469194324F44054C3
:10365000224302616A69EB691143C26849F20C6452
:103660001943A2431143C1604169AA6921F4407121
:103670001143416141F20041B3F5004F40F48060D5
:10368000C4F2010124D1884246D1FEF77FFA6B686B
:103690001921A0FB01015A00DB0FFCF791FD48F254
:1036A0001F51C5F2EB11A0FB01235A096FF0630310
:1036B00002FB0300322303EBC000A0FB01014FF427
:1036C000F87000EA111000EB0210C1F3421167E03C
:1036D000884244D1FEF75AFA6B681921A0FB010118
:1036E0009A009B0FFCF76CFD48F21F51C5F2EB11DD
:1036F000A0FB01235A096FF0630302FB030032238E
:1037000003EB0010A0FB0101F02000EA511000EBD8
:103710000210C1F3431143E0FEF726FA6B6819214A
:10372000A0FB01015A00DB0FFCF74AFD48F21F51D4
:10373000C5F2EB11A0FB01235A096FF0630302FBF2
:103740000300322303EBC000A0FB01014FF4F8702B
:1037500000EA111000EB0210C1F3421120E0FEF765
:1037600003FA6B681921A0FB01019A009B0FFCF77B
:1037700027FD48F21F51C5F2EB11A0FB01235A09A6
:103780006FF0630302FB0300322303EB0010A0FB86
:103790000101F02000EA511000EB0210C1F34311C7
:1037A0002A6808439060B0BD90F83910212927D1CC
:1037B0008168B1F5805F0ED1016AD0F800C00B8836
:1037C00002696FF35F23002ACCF8043014BF013183
:1037D0000231016205E0016A02684B1C036209784C
:1037E0005160C18C01390A04C18418BF7047006858
:1037F000C16821F08001C160C16841F04001C16031
:10380000704700002DE9F041044600680068084058
:10381000884202D10020BDE8F0811D460E46904648
:103820005F1C04E0206800683040B042F2D0002FF6
:10383000F8D02DB1FEF70EF8A0EB0800A842F1D9A0
:103840002068C16821F4D071C160416921F0010193
:103850004161202084F8390084F83A00002084F87F
:1038600038000320BDE8F08180B540F6F030C2F2A8
:103870000000FEF77BFD80BD80B582B041F20040C4
:10388000C4F201000068C00633D50020019040F664
:10389000B040C2F200000168406B0A684FF4007348
:1038A000019249680191019900680168026811F468
:1038B000002122F001020260426843600368C2F501
:1038C000007223F40023194481F400230360036889
:1038D00045F29811C2F2000143F0010318BF01F54F
:1038E0000071036040F6C06092B2C2F2000001F0C5
:1038F0000FF802B080BD0000FEE70000002848BFBE
:10390000704700F01F01012202FA01F14EF200128D
:103910004009CEF2000242F8201070474EF60C50DB
:10392000CEF200000068C0F3022070474EF6145338
:1039300000F00F02CEF2000309011A4400F16043C7
:10394000B0F1FF3FC8BF03F564421170704700003B
:103950004EF60C51CEF200010A684FF6FF031A40F2
:1039600060F30A2242F0806040F0FD70086070470A
:1039700090ED001AB4EE401AF1EE10FA02DD80ED7F
:10398000000A7047B1EE400AB4EE401AF1EE10FAA8
:10399000B8BF80ED000A70472DE9F04F81B00028D4
:1039A00000F0A3808B46002900F09F801646002A75
:1039B00000F09B801D46002B00F09780DDF82890DA
:1039C000B9F1000F00F09180DDF82C80B8F1000F04
:1039D00000F08B8040F2EC5AC2F2000ABAF87E1274
:1039E000BAF87C2241F6FF74891A0BB2002B48BF4B
:1039F00021448BB201EBD33109B202EB61010AB26F
:103A00000B46002A48BF2344B2F5005FA8BF0B1B3A
:103A10000380BAF87C029FB2394602F023F8BAF864
:103A20007E02B1EE400A394686ED000A02F01AF82D
:103A3000B1EE400A85ED000A9AED9D0A9FED2C1A21
:103A40009AED9E2A80EE010A82EE011ABAF88002EF
:103A5000BAF88222BDEEC00A10EE101A4718BDEE69
:103A6000C10A39B210EE103A1A440029384613B28E
:103A700048BF2044B1F5005F1146A8BF381B002B9A
:103A800048BF2144B3F5005FA8BF111B411A0AB219
:103A90000B4612F5805FB8BF2344B2F5805FC8BF04
:103AA0000B1B99B203EBD13109B2A0EB610001B25B
:103AB0000246002948BF2244B1F5005FA8BF021B9F
:103AC000ABF80020BAF8800294B2214601F0CAFF98
:103AD000BAF88202B1EE400A214689ED000A01F0EF
:103AE000C1FFB1EE400A88ED000A01B0BDE8F08FD9
:103AF000DB0F493AB0B582B040F2C405C2F200050E
:103B000028790024D5F80510C0F6060400F07F02DD
:103B1000204600F06DFF287901A900F07F0044EAFB
:103B20008000012200F064FF9DF807109DF804005A
:103B3000BDF8052055292870A5F80120E97006D0A8
:103B4000D5F8090018B1287940F08000287102B03A
:103B5000B0BD000080B582B001290BD039B9028810
:103B60004188043090EC040A104603F06DF8002000
:103B700002B080BD811C021D00F1080300F10C0C95
:103B800000F1100ECDE900CE00F0ECFD002818BFCA
:103B9000012002B080BD000010B540F2C404C2F2A2
:103BA0000004207940F2CC5100F0800005302071F3
:103BB00040F21000C2F200000068C2F20001C4F836
:103BC0000510C4F80900FFF795FFE07855280AD1E1
:103BD000D4F80920002A08BF10BD40F2CC50C2F230
:103BE00000000021904710BD70B58AB040F6C004B7
:103BF00001260020C2F200046D460896CDE90606B3
:103C0000CDE90000CDE90200CDE9040020462946B7
:103C1000FCF7DEFF2046FDF7B1FB20460221FCF752
:103C200071FF40F6E8040E20C2F200040990CDE9CD
:103C3000046020462946FCF7CBFF2046FDF79EFB9B
:103C400020461021FCF75EFF0AB070BD40F27C19DF
:103C500040F2A01540F2EC5641F2D03740F2781A0B
:103C6000C2F20009C2F20005C2F20006C2F2000769
:103C70004FF47A78C2F2000AFDF7ECFDB5F924C0E2
:103C8000B5F93810B5F94C20B5F96030C9F8000025
:103C90006046FCF759FEB6F98802B6F98A12B7F900
:103CA0008421B7F98631FCF783FEB7F9880100213A
:103CB00000220023FCF70CFED6E9A512D9F800304B
:103CC0000131DAF800408A1A02FB08F21C1BD6F810
:103CD000140192FBF4F2C6E9A511C6E9A724C6F8BF
:103CE000A4020120CAF8003001F0D4FEC4E70000AD
:103CF00080B5002818BF002900D180BD002AFCD063
:103D0000002BFAD040F2841CC2F2000C9CF800C0D8
:103D1000BCF1050F88BF80BDDFE80CF00306090C7D
:103D20000F1200F00FFD80BD00F074FA80BD00F0AE
:103D300077F980BD00F0BEF880BD00F04BFA80BD81
:103D400000F078FA80BD0000B0B5002832D00168DC
:103D50000446887A40F284150328C2F200050AD08E
:103D6000898A8A0507D4012805D0022801D0C80510
:103D700003D5012000E00220287001F0D3F90028CB
:103D80001CBF012028702878052888BFB0BDDFE857
:103D900000F00603090C030F02202074B0BD0320BD
:103DA0002074B0BD00202074B0BD01202074B0BDCF
:103DB00003202074B0BD000070B584B040F2A014A0
:103DC000C2F2000404F5FC71002091EC030A6D4678
:103DD0000390CDE901000090284600F08FFC207C84
:103DE000032810D104F110006FF003016A1892ED5E
:103DF000010A0431BDEEC00A10EE102A0C2920F889
:103E0000142FF3D152E09FED2A0A291F6FF01300FF
:103E100091ED011A221882ED0D1AB0EEC11AB4EE1E
:103E2000410AF1EE10FA00F1140001F10401B8BFEB
:103E3000B0EE410A3C28EBD1B1EE001AB4EE410AD3
:103E4000F1EE10FA0EDD81EE000A6FF0130000BFF4
:103E5000211891ED0D1A143020EE011A3C2881ED45
:103E60000D1AF5D1A4F11405642600BF95ED0C0AD6
:103E7000D5ED0D0AA019FFF79FF84836B6F5C27FB9
:103E800005F11405F2D1204600F006FA04F13C01D8
:103E90006FF0130091ED120A2318BDEEC00A143022
:103EA000483110EE102A3C281A87F3D104B070BDB7
:103EB00000000000B0B5002818BF002900D1B0BD37
:103EC0001446002AFBD01D46002B08BFB0BD2A4671
:103ED00000F07EFA28689FED0B2AB0F9040095EDFA
:103EE000830A01EE100AB8EEC11A21EE021A30EE72
:103EF000010ADFED050A9FED051A01F033FD84ED9F
:103F0000000AB0BDACC5A7B6DB0F49C0DB0F494006
:103F100010B52DED048B9FED3D0A9FED3D1A40F24B
:103F2000A0146FF013004C21C2F200042218936A0F
:103F30001430B3F902303C2802EE103AB8EEC22A2F
:103F400022EE002A82ED0C2A04EB010393ED122AE3
:103F500001F1480122EE012A82ED0B2AE6D194ED0F
:103F6000070A94ED0C1A94ED113A31EE402A94EDC3
:103F7000164A30EE010A30EE031A31EE041ABDEE95
:103F8000005A9FED246A21EE051A81EE061A32EEE0
:103F9000032A32EE442AB5EE005AE06822EE052AE2
:103FA00033EE400A30EE040A84ED7B2A90ED002ABD
:103FB000606820EE050A84ED7C0A90ED400A9FEDD2
:103FC000168A9FED169A84ED7D1A32EE400AF0EEC5
:103FD000480AB0EE491A01F0C5FCD4E9021084ED9C
:103FE000880A90ED021A91ED402AF0EE480A31EE6F
:103FF000420AB0EE491A01F0B5FCE06884ED890A86
:104000004068C4F82802BDEC048B10BD0A01DA39FF
:104010000000FA43CDCC4C3EDB0F49C0DB0F4940DA
:1040200070B52DED028B002818BF002902D1BDEC20
:10403000028B70BD1446002AF9D01D46002BF6D025
:104040002A4600F0C5F9286840F29C15808AC2F221
:104050000005810640F29811C2F2000102D400224C
:104060000A7005E00A781AB901220A7000222A6053
:10407000097840F294160129C2F2000616D1000711
:1040800015A008BF043095ED000A90ED008A04F0F9
:10409000B3FA95ED001A9FED122A28EE000A86ED7C
:1040A000000A31EE020A85ED000A01E000203060CE
:1040B00095ED000A9FED0B1AB4EE410AF1EE10FAED
:1040C00005DD9FED091A30EE010A85ED000A306822
:1040D0002060BDEC028B70BD7CD9A03E3333333FF2
:1040E0007C594444DB0FC940DB0FC9C010B52DED2E
:1040F000028B40F2A014C2F200040320207400F0EE
:1041000067FD206000F030FDE06000F091FD606030
:1041100000F056FD9FED148A49F23C41A06004F581
:10412000E670C0F60001B0EE480A00F057FC49F214
:10413000404104F5EE70C0F60001B0EE480A00F010
:104140004DFC4FF08040002304F5047C4FF04041CB
:104150004FF07F52CBF6C0738CE80F00FFF7D8FE0C
:10416000BDEC028B10BD00BF6F12033B0168898A52
:10417000CA0502D590F82D2222B3890508D590F8FA
:104180002D1229B9012180F82E12002180F82C125D
:10419000B8B1017C427C8A4208BF704722B119B98C
:1041A0000022C0F808220BE0012A01D0012903D027
:1041B000022A05D0022903D1D0F82022C0F80C220F
:1041C0004174704740F20111A0F82C120028E0D190
:1041D000F7E70000B0B5002818BF002900D1B0BD36
:1041E0001446002AFBD01D46002B08BFB0BD2A464E
:1041F00000F0EEF828689FED061AB0F9040000EE12
:10420000100AB8EEC00A20EE010A84ED000AB0BD23
:104210000AD723BC002818BF002900D17047002A04
:10422000FCD0002B08BF7047002303600B601360B5
:1042300070470000002818BF002900D17047002AED
:10424000FCD0002B08BF704710B51B68B3F902E023
:10425000B3F900C0B3F904400EEB8E035B0000EE2F
:10426000103AB8EEC00A80ED000A0CEB8C00404218
:10427000400000EE100A04EB84004042B8EEC00A91
:10428000400081ED000A00EE100AB8EEC00A82ED8F
:10429000000ABDE81040704710B582B00446002007
:1042A000CDE9000000F09AFC0C283AD8012101FA6F
:1042B00000F041F20501084233D09FED3B0A9FED2B
:1042C000421A04F184006FF0470100BF421892EDDA
:1042D000122A4831B0EEC22AD82931EE021AF5D19D
:1042E000B4EE401AF1EE10FA19DD80EE010A94EDF9
:1042F000211A94ED332A94ED453A94ED574A20EE75
:10430000011A84ED211A20EE021A84ED331A20EEF0
:10431000031A20EE040A84ED451A84ED570A02B010
:1043200010BD01A8694600F031FC9DED000A9FED2B
:104330001F1AB4EE410AF1EE10FA0DDAB1EE042ABA
:10434000B4EE420AF1EE10FA25DD80EE010A9FED8F
:104350001A1A20EE010AB2E79DED010A9FED151A27
:10436000B4EE410AF1EE10FA18DD9FED141AB4EE26
:10437000410AF1EE10FA14DA31EE400AB3EE041AF3
:1043800080EE010A9FED0E1A9FED0B2A20EE010A26
:1043900030EE020A93E79FED0B0A90E79FED040AC7
:1043A0008DE79FED050A8AE700606A4700007042CA
:1043B00000B808470000C84200606A460000F042AA
:1043C00000409C4600409C440000000000000000AB
:1043D0002DE9F0472DED048B002900F096808046F2
:1043E000002800F092809246002A00F08E80DAF8D1
:1043F00000408946608800F10A0189B215290DD371
:1044000000B2FCF7F0F89FED440B53EC102BFBF7D8
:10441000D3FFFCF719F908EE100A01E09FED468A78
:10442000208800F10A0189B215290DD300B2FCF7EA
:10443000DAF89FED3B0B53EC102BFBF7BDFFFCF7BD
:1044400003F909EE100A01E09FED3C9AA08AC1072A
:1044500004D1810706D50AF5057101E00AF504715A
:1044600091ED008A410704D4000706D50AF50770CC
:1044700001E00AF5067090ED009A0AF5E670B0EEDC
:10448000480A00F08FFA0AF5EE70B0EE490A00F023
:1044900089FA18EE100AFCF7C4F89FED230B0446C6
:1044A00057EC106B32463B460D46FCF781F860B97D
:1044B0009FED1F0B204653EC102B2946FCF75DF8AF
:1044C000002804BF0020CAF8D00119EE100AFCF73A
:1044D000A8F832463B4604460D46FCF769F860B939
:1044E0009FED130B204653EC102B2946FCF745F8A3
:1044F000002804BF0020CAF8E001DAF8D001C8F8AB
:104500000000DAF8E001C9F80000BDEC048BBDE85A
:10451000F08700BF00BF00BFB81E85EB51B8AE3FAB
:10452000B81E85EB51B8AEBF333333333333E33F7B
:10453000333333333333E3BF000000000000008027
:1045400010B52DED028B84B040F2A0140020C2F211
:1045500000040390CDE9010003A802A901AA2346A3
:10456000FFF7C6FB2068817A207C032943D102280B
:1045700041D0606890ED400AB1EE400A04F03CF88A
:104580006068B0EE408A90ED401AB1EE410A03F047
:104590008BFF9DED031A9DED022A20EE013A20EEDD
:1045A000020A28EE011A30EE411A28EE024A9DED69
:1045B000010A84ED7F1ADFED380A9FED381A33EED9
:1045C000043A84ED7E3A01F0CDF96068F0EE400ADD
:1045D00090ED400A04F5C270C4ED820AFEF7ECFCCF
:1045E000B1EE402A94ED7E0A94ED841AD4ED850A4A
:1045F00084ED802A31E0022940D001293CD1606855
:1046000090ED400AB1EE400A03F0F6FF6068B0EEAC
:10461000408A90ED401AB1EE410A03F045FF9DED4E
:10462000031A9DED023A20EE012A28EE034A20EEFD
:10463000030A28EE011A32EE042A30EE410A94ED04
:10464000841AD4ED850A84ED7F0A4FF08140B0EEE4
:10465000420A84ED7E2AC4F8000200F0D1F994EDFC
:104660007F2A94ED861AD4ED870A84ED7E0AB0EE97
:10467000420A00F0C5F908E0022808D19FED080AB7
:104680000020C4F80002C4F8F80184ED7F0A04B0E9
:10469000BDEC028B10BD00BFDB0F49C0DB0F4940F2
:1046A0000000000080B540F2A010C2F20000FFF749
:1046B0004BFB80BD82B00020019040F2651002F0FB
:1046C000CFFEFFF713FD40F2A01440F29016C2F2A5
:1046D000000401ADC2F20006FFF7E4FF2046FFF739
:1046E00045FDFFF715FCFFF72BFF2846022101F0DF
:1046F000D9F9002002F04AFD3060EDE79FED0F2A66
:104700009FED0F5A30EE203A21EE022A30EE604A39
:1047100021EE051A30EEC00A34EE024A32EE432A88
:1047200033EE013A30EE010A80ED002A80ED014AB5
:1047300080ED023A80ED030A704700BFEB5138BEAE
:10474000AF4761BE002818BF002900D17047002A7A
:10475000FCD0002B08BF7047002303600B60136080
:10476000704700002DE9F04F83B040F2EC55C2F2E3
:104770000005884695F88412002405291FD00029D9
:104780005ED1012085F88402D5F83C01EA68D5F8AD
:1047900044120088D5F814311288C5F87412A5F8AF
:1047A0008002C5F86C32A5F87C22C5F87812A5F80D
:1047B0008202C5F87032A5F87E22002440E0DDE9CF
:1047C0000CBA41461E4617468146CDF800B0CDF8DA
:1047D00004A0FFF7E1F897ED000A9FED1B1A9FED8B
:1047E0001B2A30EE010A87ED000A96ED000AB9F89F
:1047F000001030EE020A86ED000A9BED000AA5F8D3
:10480000021130EE010A8BED000A9AED000AB8F8A9
:10481000001030EE020A8AED000A386885F88442FA
:10482000C5F8040130680124C5F80801DBF8000070
:10483000A5F83212C5F83402DAF80000C5F83802DB
:10484000204603B0BDE8F08FCDCCCCBDCDCCCC3D67
:1048500045F28C10C2F20000002101607047000098
:1048600082B001F02DF941F2D037C2F200070EA458
:1048700010A501AE019000BFD7F84801FBF7D1FEAB
:10488000024620460B4603F0EBFDD7F84401FBF748
:10489000C8FE024628460B4603F0E2FD30460121E1
:1048A00001F000F9E8E700BF7365743D25660D0A65
:1048B00000000000646174613D25660D0A0000007F
:1048C00080B5EFF3108CEFF3108172B64168036985
:1048D0008B4284BF016801610269D0E9023112F89C
:1048E00001EB01330139C0E9023102618CF3108818
:1048F000704680BD0346881801384FF0000CC3E9AC
:1049000000100020C3E9022C1961596170470000B2
:104910002DE9F0470546EFF31089EFF3108072B6EA
:1049200021B3AC6814B32F4657F8140F0E4657F84E
:10493000101C884284BF286868616968686994426D
:10494000A1EB000101F1010AC8BF1446544513DD73
:1049500031465246A4EB0A08FBF763FC286806EBD5
:104960000A014246FBF75DFC2F460AE089F31088F6
:104970004FF0FF30BDE8F08731462246FBF751FC8F
:10498000A046386840446861D5E90201001B214413
:10499000C5E9020189F310882046BDE8F0870000D0
:1049A000C06870478168C26801EE101A02EE102AD2
:1049B00031EE023A81EE031A82EE032A426810EECB
:1049C000101A03EE102A016023EE011A22EE000AEB
:1049D00031EE000A10EE101A4160704710EE102AF6
:1049E000C260096881600021016041607047000079
:1049F00080B50346920008461946FBF712FC80BDBD
:104A0000B4EE600AF1EE10FA08DBB4EE410AF0EE03
:104A1000410AF1EE10FAD8BFF0EE400AB0EE600A9B
:104A20007047000080B582B0019040F6B030C2F20D
:104A3000000001A901224FF6FF73FDF75FFF019807
:104A400002B080BD10B52DED028B41F2D034C2F220
:104A50000004E068D4F88011B0F9020000EE100AFA
:104A6000B8EEC00AB1B1B4F9660101EE100AF8EE71
:104A7000C10A04F1A800FEF79FFAB4F96811BDEE6F
:104A8000C00A10EE100A00EE101AA4F88401B8EE65
:104A9000C08A0DE09FED1B8A04F1A800F0EE480AE1
:104AA000FEF78AFABDEEC00A10EE100AA4F88401DF
:104AB0002069F0EE480AB0F9020000EE100AB8EEE4
:104AC000C00A04F1F000FEF777FABDEEC00A10EE5E
:104AD000100AA168A4F88601B1F90200D4ED4E0ACB
:104AE00000EE100AB8EEC00A04F16000FEF764FAA6
:104AF000BDEEC00A10EE100AA4F88801BDEC028BCE
:104B000010BD00BF0000000045F28C10C2F2000092
:104B10000068704780B598B181B149F28E4C013878
:104B2000C0F6000C10F801EFD3B283EA0E033CF894
:104B3000133092B2013983EA1222F3D190B280BDD0
:104B40004FF6FF7290B280BD61B149F2183C013856
:104B5000C0F6000C10F8013FD2B25A401CF80220F7
:104B60000139F7D11046704740F27C50C2F2000084
:104B70007047000000F0030040F2D20100EB80001B
:104B8000C2F2000101EB40007047000040F6005205
:104B9000C2F2000253681289036000EE102AB8EED8
:104BA000400A81ED000A704740F6B400C2F20000EE
:104BB0007047000040F22210C2F20000323070470D
:104BC00040F2EC50C2F2000000F59E707047000009
:104BD00040F6A860C2F200007047000041F2743055
:104BE000C2F200000078704741F27432C2F2000253
:104BF0009289028040F60050C2F20000808908804D
:104C00007047000040F2221100EB8000C2F2000168
:104C100001EB40003C30704740F2D200C2F200008D
:104C20002830704740F22210C2F20000283070474E
:104C300040F2EC50C2F200000C30704710B52DED80
:104C4000028B002845D0B0EE418AC0ED030A80ED0A
:104C5000040A30EEC00ADFED220A9FED221A044654
:104C600000F080FE94ED002A94ED013A20EE022A35
:104C700084ED082A94ED092A84ED050A94ED024A90
:104C800020EE030A94ED071A32EE000A84ED090AB9
:104C900024EE080A04F1240084ED0A0AB0EE410A69
:104CA000FEF766FE94ED081A94ED092A94ED0A3A8F
:104CB00094ED060A31EE021A31EE031A04F12C00CB
:104CC00084ED0B1AFEF754FE94ED0B0ABDEC028B3B
:104CD00010BD9FED020ABDEC028B10BD000000006C
:104CE000DB0F49C0DB0F4940002808BF7047002197
:104CF000C0E903114161C0E90811C0E90A11704718
:104D0000002808BF7047002180ED001AC0E901119A
:104D1000C0E9041180ED060AC0ED070A70470000E3
:104D2000002818BF002900D17047002A08BF70472B
:104D300010B5D2F800C09FED211ABCF804309FEDE9
:104D4000202A5A1D1FFA82FE0022BEF10A0F98BFC8
:104D50001346BCF806E01BB20EF10504A4B20A2CFF
:104D600088BF724600EE103ABCF90C30B8EEC00AAB
:104D700020EE010A01EE103AB8EEC11A21EE021A35
:104D800012B230EE010ABCF90E4080ED000A00EECE
:104D9000102A9FED0C1AB8EEC00A20EE010A01EEAF
:104DA000104A9FED092AB8EEC11A21EE021A31EE1F
:104DB000000A81ED000ABDE8104070479C53C9B657
:104DC000ACC5A7B8B5FE16B7ACC52738002808BFD4
:104DD000704710B590ED431ADFED060A31EE000A78
:104DE0009FED051A044600F0BDFD84ED430ABDE8C1
:104DF00010407047DB0F49C0DB0F4940002808BF57
:104E0000704710B590ED431ADFED060A31EE000A47
:104E10009FED051A044600F0A5FD84ED430ABDE8A8
:104E200010407047DB0F49C0DB0F494080B50028B8
:104E300018BF002900D180BD002A08BF80BD40F204
:104E4000C453C2F2000393F800C0BCF1050F07D8A9
:104E5000DFE80CF003090C0F121500F045FC80BDD3
:104E600000F002FC80BD00F01DFA80BD00F0A0F84B
:104E700080BDFFF755FF80BD00F000FB80BD00F056
:104E80009FFA80BDB0B550B140F2C455C2F20005E2
:104E900004462878022803D194F8840200B1B0BDFA
:104EA00094F88402012804D1002002F0C3F80028FD
:104EB0006ED02068817A03294DD1297801294AD101
:104EC00094ED430A9FED371A40F2C85EC2F2000E1D
:104ED00030EE011A9FED340ABEF80030B0EEC11A70
:104EE000B4EE401A40F2C65C5A1CF1EE10FAC2F25F
:104EF000000CAEF8002015DA94ED911A9FED2B2AE4
:104F000031EE021AB0EEC11AB4EE401AF1EE10FA08
:104F100008DABCF8002013097C2B9CBF0132ACF8E6
:104F2000002007E092B241F26F718A429CBF991C47
:104F3000AEF80010BEF8001041F26F72914205D831
:104F4000BCF80010B1F5FA6F38BFB0BD012184F88C
:104F5000A91203212970C17C09B106200FE0817AD2
:104F600002290BD0808AC20508D4032913D010F47B
:104F7000007010D1012903D1032000E00020287027
:104F80000020002402F056F8002818BF2C70B0BD95
:104F900002202870B0BD94F8A9120120012908BF91
:104FA0000320ECE7658390BCCDCCCC3D63149D3CE5
:104FB00080B5002818BF002900D180BD002AFCD090
:104FC00092F884C2ACF1010EBEF1040FF5D8DFE80F
:104FD0000EF0037B294E74000023C4F2FA530B60D9
:104FE0000021016092ED930A9FED4D1AB4EE410A43
:104FF000F1EE10FAE1DA40F2E050C2F2000001886E
:1050000001318BB2B3F5FA6F0180D6D9002101804E
:10501000D2F83C01D2F844120088C2F87412A2F807
:10502000800278E000230B600021C4F2FA51016095
:1050300092ED470A9FED3A1AB4EE410AF1EE10FAEA
:10504000BBDA40F2E050C2F20000018801318BB2BD
:10505000B3F5FA6F0180B0D900210180D068D2F891
:1050600014110088C2F86C12A2F87C0253E00023ED
:105070000B600021CCF2FA51016092ED470A9FEDDE
:10508000281AB4EE410AF1EE10FA96DA40F2E05036
:10509000C2F20000018801318BB2B3F5FA6F0180D2
:1050A00098BF80BD00210180D068D2F8141100881B
:1050B000C2F87012A2F87E022DE040F2E050C2F277
:1050C00000000021018080BD0023CCF2FA530B6068
:1050D0000021016092ED930A9FED111AB4EE410A8E
:1050E000F1EE10FABFF669AF40F2E050C2F20000F4
:1050F000018801318BB2B3F5FA6F01807FF65DAFA5
:1051000000210180D2F83C01D2F844120088C2F894
:105110007812A2F882020CF1010082F8840280BDAC
:10512000CDCCCC3D40F2C450C2F20000007805283E
:1051300003D803281CBF01207047002070470000DF
:1051400040F2C450C2F2000001780020032938BFA9
:105150000120704710B540F2EC54C2F2000494F8FC
:105160000001022807D001280AD058B904F10C0028
:1051700000F052F906E004F10C0000F05BF901E0E8
:1051800000F02AF994F83002022809D0012807D04B
:10519000002818BF10BD04F59E7000F03DF910BD49
:1051A00004F59E7000F046F910BD000010B52DED1D
:1051B000028B40F2EC54C2F200046068D4F83C1157
:1051C00082680888B4F83212C4F8442200F04AFC1D
:1051D000B1EE408A84ED8F8AD4E90110E26840681C
:1051E0000B68C4F84C021088B4F80211C4F81431EA
:1051F00000F038FCB1EE400A84ED430AB0EE480AF4
:1052000003F052F9A06894ED8F1A90ED022A20EE77
:10521000028AB0EE410A03F0EFF9A06890ED001A9F
:1052200020EE010A38EE400A84ED470ABDEC028BFD
:1052300010BD000010B5FFF7F5FC40F2EC54C2F2CF
:105240000004E060FFF7B6FCC4F83C01FFF78CFCFB
:105250006060FFF7A9FCA060FFF7BAFC20600020A7
:10526000A4F80001A4F83002FFF7A0FFD4F80C0165
:10527000D4F81411C4F81001D4F84402D4F81C2155
:10528000D4F83C32C4F84802D4F84C02C4F81811DF
:10529000C4F82021C4F82421C4F84032C4F85402D0
:1052A00010BD0000002818BF002900D17047002A57
:1052B00008BF704792ED8F0A9FED121A9FED122AD8
:1052C00031EE400A20EE021A9FED112AB0EEC00A1C
:1052D000B4EE420AF1EE10FA81ED001A04DD9FED02
:1052E0000B0A80ED000A704792ED430A9FED091A00
:1052F0009FED092A31EE400A20EE020A80ED000AF5
:10530000704700BF63149DBC6F12833B0000000018
:10531000CDCCCC3D6583903C0AD7A33B40F2EC500A
:10532000C2F2000090F8012190F800115AB151B971
:10533000B0F9342100EE102AB8EEC00A80ED4B0A15
:1053400080ED4C0A10E0012A06D0012904D1D0F8E2
:105350001421C0F8182107E0022A05D0022904BF51
:10536000D0F80C21C0F8102190F8313290F830229A
:1053700080F801116BB162B9B0F9641280F8312282
:1053800000EE101AB8EEC00A80ED970A80ED980A78
:105390007047012B08D0012A06D1D0F8441280F8BA
:1053A0003122C0F848127047022B05D0022A04BFF0
:1053B000D0F83C12C0F8401280F83122704700004B
:1053C000002818BF002900D17047002A1EBF002204
:1053D00002600A607047000010B540F2EC54C2F25F
:1053E000000404F58A7090EC030A04F11000FFF742
:1053F00025FCF0EE400A94ED470A04F1B800C4ED34
:10540000490AFDF7D9FD84ED4C0ABDEEC00A10EE45
:10541000100AA4F8340110BD002808BF704790EDB1
:10542000480A80ED490ABDEEC00A10EE101AA0F835
:1054300028117047002808BF704710B590ED400A4A
:10544000D0ED410A90ED441A04463430FFF7F6FBE4
:10545000F0EE400A84ED460A94ED440A04F164003B
:10546000FDF7AAFD84ED490ABDEEC00A10EE100A50
:10547000A4F82801BDE8104070470000002818BFBC
:10548000002900D17047002A08BF704710B5D2F834
:1054900000C09FED211ABCF804309FED202A5A1D50
:1054A0001FFA82FE0022BEF10A0F98BF1346BCF815
:1054B00006E01BB20EF10504A4B20A2C88BF7246A6
:1054C00000EE103ABCF90C30B8EEC00A20EE010A2A
:1054D00001EE103AB8EEC11A21EE021A12B230EE05
:1054E000010ABCF90E4080ED000A00EE102A9FED83
:1054F0000C1AB8EEC00A20EE010A01EE104A9FED28
:10550000092AB8EEC11A21EE021A31EE000A81ED25
:10551000000ABDE810407047BD3786B6ACC5A7B8D5
:10552000B5FE16B7ACC52738002808BF704790ED08
:10553000412A90ED3E1A32EE000AB4EE410AF1EE35
:1055400010FA80ED410AC4BF80ED411A704790ED1A
:105550003F1AB4EE410AF1EE10FAB8BF80ED411ADD
:105560007047000010B582B040F2EC540020C2F247
:105570000004CDE9000001A869462246FFF756FC69
:1055800094F80001022822D0012804D028BB0198F9
:10559000C4F82C0121E02168897A032906D19DED08
:1055A000010A04F10C00FFF729FC16E002280ED0D6
:1055B000012812D12168897A012906D19DED010ABD
:1055C00004F10C00FFF702FC07E0022805D19DED75
:1055D000010A04F10C00FFF7A7FF94F8300202283B
:1055E00007D001280DD050B90098C4F85C0202B071
:1055F00010BD9DED000A04F59E70FFF795FF02B007
:1056000010BD9DED000A04F59E70FFF7DFFB02B0B0
:1056100010BD000010B540F2EC54C2F20004204668
:10562000FFF730FC40F2C450C2F200000278052AB5
:1056300009D800200021DFE802F0110311090F0C46
:10564000022002210AE00320032107E002210120B9
:1056500004E00220022101E00220022184F800017E
:1056600084F8301210BD0000002818BF002900D1B6
:105670007047002A08BF704741F2D032C2F20002E0
:1056800052695368036010680860704782B0002058
:105690000190C92001F0E4FEFFF7CCFD40F2EC558B
:1056A00040F69806C2F2000501ACC2F2000600BF47
:1056B000FFF7B0FFFFF732FEFFF778FDFFF752FF6D
:1056C000B5F83401B5F864124042A5F888024842A2
:1056D000A5F88A022046012100F0E4F9002001F03B
:1056E00055FD3060E4E70000002818BF002900D114
:1056F0007047002A1EBF002202600A607047000047
:10570000012000F0C7F9FBE782B09FED430B41F2A7
:1057100068599FED438A9FED439A40F27C5A41F2CB
:10572000705B9FED41AA40F6B4060020C2F200096A
:10573000C2F2000AC2F2000B55EC104BC2F2000696
:10574000019000BFB9F90410B9F9000000EE101A79
:10575000B8EEC00A20EE080A01EE100ABBF90000FC
:10576000B9F9022020EE090A8AED000A00EE100ABB
:1057700002EE102AB8EEC00AB8EEC11AB8EEC22A7C
:1057800020EE090A21EE081A22EE082A20EE0A0A63
:1057900021EE091A22EE092ABBF90280BBF9047036
:1057A00010EE100A8AED011A8AED022AFAF739FF83
:1057B00022462B46FAF700FEFAF746FF00EE108A63
:1057C000B8EEC00A20EE090A20EE0A0A306010EE98
:1057D000100AFAF726FF22462B46FAF7EDFDFAF7F4
:1057E00033FF00EE107AB8EEC00A20EE090A20EE70
:1057F0000A0A706010EE100AFAF713FF22462B46D1
:10580000FAF7DAFDFAF720FFB06001A8012100F0F5
:1058100049F997E700BF00BFA835CD3B4ED1913F76
:10582000DA0F49400000003800007A43EFF30580AA
:10583000002818BF0120704741F2D821C2F20001B0
:1058400000200871086041F2DD21C2F20001086009
:10585000087140F2BC51C2F20001086040F28C5164
:10586000C2F20001087040F29051C2F20001C1E999
:105870000000C1E90200C1E90400886140F28851DA
:10588000C2F20001086041F28451C2F200010860D6
:1058900041F28851C2F200010880887041F26C31F7
:1058A000C2F20001088041F27431C2F20001C1E984
:1058B0000000C1E9020040F60051C2F20001C1E956
:1058C0000000C1E9020040F2AC51C2F20001C1E99E
:1058D0000000C1E9020040F2C001C2F200010870FC
:1058E00041F26E31C2F20001088041F27031C2F221
:1058F0000001087041F26051C2F20001C1E90000EC
:1059000040F2C101C2F20001087041F27851C2F2C6
:105910000001C1E9000088607047000082B00020EB
:105920000190FFF789FF40F6C06040F6D861C2F2EF
:105930000000C2F200014FF48062FEF7DBFF45F287
:105940009810C2F2000000F500714FF4007201F0EF
:105950009DFB01AC01F070F82046052100F0A2F893
:10596000F8E70000B4EE601AF1EE10FA29DBB4EEAD
:10597000410AF1EE10FA0FDDB4EE410AF1EE10FA31
:105980001FDD30EEC12A00BF32EE000AB4EE410A3C
:10599000F1EE10FAF8DC14E0B4EE600AF1EE10FA61
:1059A0000FDAB4EE600AF1EE10FAA8BF704731EEDC
:1059B000601A00BF31EE000AB4EE600AF1EE10FA90
:1059C000F8DB7047FBF75AFFFDF734FC4FF4FA7031
:1059D000FBF750FEFDF768F9FDF73AF8FCF7FCFF1E
:1059E000FDF718F8FDF73CFAFDF756FAFDF776FAE1
:1059F000FDF7ACFAFDF78EFAFDF7C8F9FDF706FAE8
:105A0000FEF7F2F801F0B6F8FEF7C6F8FFF70AF96C
:105A100045F67451C2F20001086041F20000C4F280
:105A2000020001210122FBF70FFF40F63030C2F2E5
:105A30000000FCF743FB40F6304040F25C01C2F24C
:105A40000000C2F200010122FCF72CFFFDF746F82E
:105A500000F030F8FEE70000B0F1840118BFC11C6F
:105A600008467047401A024641F6FF7110F5805F04
:105A7000B8BF0A44B0F5805FC8BF421A00EE102AD2
:105A80009FED031AB8EEC00A20EE010A704700BF6E
:105A9000DB0F493A80B5002808BF012001F0E0FC87
:105AA000002080BD80B5002908BF012101F002FD62
:105AB000002080BD80B501F0A1FD002080BD000068
:105AC00080B5FFF7B3FE10B102F072FA80BD02F0AC
:105AD00069FA80BD2DE9F04385B047690C46A7B14E
